{"contracts/AddLiquidity.sol":{"AddLiquidity":{"abi":[{"inputs":[{"internalType":"address","name":"_positionManager","type":"address"}],"stateMutability":"nonpayable","type":"constructor"},{"inputs":[{"internalType":"address","name":"pool","type":"address"},{"internalType":"uint256","name":"amount0","type":"uint256"},{"internalType":"uint256","name":"amount1","type":"uint256"},{"internalType":"uint256","name":"width","type":"uint256"}],"name":"createPosition","outputs":[],"stateMutability":"nonpayable","type":"function"},{"inputs":[{"internalType":"uint160","name":"sqrtPriceX96","type":"uint160"},{"internalType":"uint256","name":"width","type":"uint256"}],"name":"getLowerTick","outputs":[{"internalType":"int24","name":"","type":"int24"}],"stateMutability":"view","type":"function"},{"inputs":[{"internalType":"uint160","name":"sqrtPrice","type":"uint160"}],"name":"getPrice","outputs":[{"internalType":"uint256","name":"","type":"uint256"}],"stateMutability":"view","type":"function"},{"inputs":[{"internalType":"int24","name":"tick","type":"int24"}],"name":"getSqrtPrice","outputs":[{"internalType":"uint160","name":"","type":"uint160"}],"stateMutability":"view","type":"function"},{"inputs":[{"internalType":"uint160","name":"sqrtPriceX96","type":"uint160"},{"internalType":"uint256","name":"width","type":"uint256"}],"name":"getUpperTick","outputs":[{"internalType":"int24","name":"","type":"int24"}],"stateMutability":"view","type":"function"},{"inputs":[],"name":"positionManager","outputs":[{"internalType":"contract INonfungiblePositionManager","name":"","type":"address"}],"stateMutability":"view","type":"function"},{"inputs":[{"internalType":"uint256","name":"y","type":"uint256"}],"name":"sqrt","outputs":[{"internalType":"uint256","name":"z","type":"uint256"}],"stateMutability":"pure","type":"function"}],"evm":{"bytecode":{"linkReferences":{},"object":"60806040523480156200001157600080fd5b5060405162001fe538038062001fe58339818101604052810190620000379190620000e8565b806000806101000a81548173ffffffffffffffffffffffffffffffffffffffff021916908373ffffffffffffffffffffffffffffffffffffffff160217905550506200011a565b600080fd5b600073ffffffffffffffffffffffffffffffffffffffff82169050919050565b6000620000b08262000083565b9050919050565b620000c281620000a3565b8114620000ce57600080fd5b50565b600081519050620000e281620000b7565b92915050565b6000602082840312156200010157620001006200007e565b5b60006200011184828501620000d1565b91505092915050565b611ebb806200012a6000396000f3fe608060405234801561001057600080fd5b506004361061007d5760003560e01c8063a2e0998d1161005b578063a2e0998d14610100578063c43d0c1314610130578063d9c7c1a914610160578063f8c4ee6d146101905761007d565b8063677342ce14610082578063791b98bc146100b25780637dfabf76146100d0575b600080fd5b61009c600480360381019061009791906111cc565b6101ac565b6040516100a99190611208565b60405180910390f35b6100ba610226565b6040516100c791906112a2565b60405180910390f35b6100ea60048036038101906100e591906112f6565b61024a565b6040516100f79190611332565b60405180910390f35b61011a60048036038101906101159190611379565b61025c565b60405161012791906113c8565b60405180910390f35b61014a60048036038101906101459190611379565b6102c4565b60405161015791906113c8565b60405180910390f35b61017a600480360381019061017591906113e3565b61032c565b6040516101879190611208565b60405180910390f35b6101aa60048036038101906101a5919061144e565b610391565b005b6000600382111561021357819050600060016002846101cb9190611513565b6101d59190611544565b90505b8181101561020d5780915060028182856101f29190611513565b6101fc9190611544565b6102069190611513565b90506101d8565b50610221565b6000821461022057600190505b5b919050565b60008054906101000a900473ffffffffffffffffffffffffffffffffffffffff1681565b60006102558261073b565b9050919050565b6000806102b8612710610288612710866127106102799190611544565b6102839190611578565b6101ac565b8673ffffffffffffffffffffffffffffffffffffffff166102a99190611578565b6102b39190611513565b610c06565b90508091505092915050565b6000806103206127106102f0612710866127106102e191906115ba565b6102eb9190611578565b6101ac565b8673ffffffffffffffffffffffffffffffffffffffff166103119190611578565b61031b9190611513565b610c06565b90508091505092915050565b600078010000000000000000000000000000000000000000000000008273ffffffffffffffffffffffffffffffffffffffff168373ffffffffffffffffffffffffffffffffffffffff166103809190611578565b61038a9190611513565b9050919050565b600084905060008173ffffffffffffffffffffffffffffffffffffffff1663d0c93a7c6040518163ffffffff1660e01b8152600401602060405180830381865afa1580156103e3573d6000803e3d6000fd5b505050506040513d601f19601f820116820180604052508101906104079190611603565b90506000808373ffffffffffffffffffffffffffffffffffffffff16633850c7bd6040518163ffffffff1660e01b815260040160e060405180830381865afa158015610457573d6000803e3d6000fd5b505050506040513d601f19601f8201168201806040525081019061047b91906116f0565b50505050509150915060008060009054906101000a900473ffffffffffffffffffffffffffffffffffffffff1673ffffffffffffffffffffffffffffffffffffffff1663883164566040518061016001604052808873ffffffffffffffffffffffffffffffffffffffff16630dfe16816040518163ffffffff1660e01b8152600401602060405180830381865afa15801561051a573d6000803e3d6000fd5b505050506040513d601f19601f8201168201806040525081019061053e91906117a7565b73ffffffffffffffffffffffffffffffffffffffff1681526020018873ffffffffffffffffffffffffffffffffffffffff1663d21220a76040518163ffffffff1660e01b8152600401602060405180830381865afa1580156105a4573d6000803e3d6000fd5b505050506040513d601f19601f820116820180604052508101906105c891906117a7565b73ffffffffffffffffffffffffffffffffffffffff1681526020018873ffffffffffffffffffffffffffffffffffffffff1663ddca3f436040518163ffffffff1660e01b8152600401602060405180830381865afa15801561062e573d6000803e3d6000fd5b505050506040513d601f19601f82011682018060405250810190610652919061180f565b62ffffff16815260200161066f610669888c6102c4565b89611005565b60020b815260200161068a610684888c61025c565b89611005565b60020b81526020018b81526020018a815260200160008152602001600081526020013373ffffffffffffffffffffffffffffffffffffffff168152602001428152506040518263ffffffff1660e01b81526004016106e89190611959565b6080604051808303816000875af1158015610707573d6000803e3d6000fd5b505050506040513d601f19601f8201168201806040525081019061072b91906119d2565b5050509050505050505050505050565b60008060008360020b12610752578260020b610760565b8260020b61075f90611a43565b5b90507ffffffffffffffffffffffffffffffffffffffffffffffffffffffffffff2761861078c90611a8b565b60020b8111156107d1576040517f08c379a00000000000000000000000000000000000000000000000000000000081526004016107c890611b30565b60405180910390fd5b60008060018316036107f457700100000000000000000000000000000000610806565b6ffffcb933bd6fad37aa2d162d1a5940015b70ffffffffffffffffffffffffffffffffff169050600060028316146108495760806ffff97272373d413259a46990580e213a826108449190611578565b901c90505b600060048316146108775760806ffff2e50f5f656932ef12357cf3c7fdcc826108729190611578565b901c90505b600060088316146108a55760806fffe5caca7e10e4e61c3624eaa0941cd0826108a09190611578565b901c90505b600060108316146108d35760806fffcb9843d60f6159c9db58835c926644826108ce9190611578565b901c90505b600060208316146109015760806fff973b41fa98c081472e6896dfb254c0826108fc9190611578565b901c90505b6000604083161461092f5760806fff2ea16466c96a3843ec78b326b528618261092a9190611578565b901c90505b6000608083161461095d5760806ffe5dee046a99a2a811c461f1969c3053826109589190611578565b901c90505b600061010083161461098c5760806ffcbe86c7900a88aedcffc83b479aa3a4826109879190611578565b901c90505b60006102008316146109bb5760806ff987a7253ac413176f2b074cf7815e54826109b69190611578565b901c90505b60006104008316146109ea5760806ff3392b0822b70005940c7a398e4b70f3826109e59190611578565b901c90505b6000610800831614610a195760806fe7159475a2c29b7443b29c7fa6e889d982610a149190611578565b901c90505b6000611000831614610a485760806fd097f3bdfd2022b8845ad8f792aa582582610a439190611578565b901c90505b6000612000831614610a775760806fa9f746462d870fdf8a65dc1f90e061e582610a729190611578565b901c90505b6000614000831614610aa65760806f70d869a156d2a1b890bb3df62baf32f782610aa19190611578565b901c90505b6000618000831614610ad55760806f31be135f97d08fd981231505542fcfa682610ad09190611578565b901c90505b600062010000831614610b055760806f09aa508b5b7a84e1c677de54f3e99bc982610b009190611578565b901c90505b600062020000831614610b345760806e5d6af8dedb81196699c329225ee60482610b2f9190611578565b901c90505b600062040000831614610b625760806d2216e584f5fa1ea926041bedfe9882610b5d9190611578565b901c90505b600062080000831614610b8e5760806b048a170391f7dc42444e8fa282610b899190611578565b901c90505b60008460020b1315610bc957807fffffffffffffffffffffffffffffffffffffffffffffffffffffffffffffffff610bc69190611513565b90505b600064010000000082610bdc9190611b50565b14610be8576001610beb565b60005b60ff16602082901c610bfd9190611544565b92505050919050565b60006401000276a373ffffffffffffffffffffffffffffffffffffffff168273ffffffffffffffffffffffffffffffffffffffff1610158015610c88575073fffd8963efd1fc6a506488495d951d5263988d2673ffffffffffffffffffffffffffffffffffffffff168273ffffffffffffffffffffffffffffffffffffffff16105b610cc7576040517f08c379a0000000000000000000000000000000000000000000000000000000008152600401610cbe90611bcd565b60405180910390fd5b600060208373ffffffffffffffffffffffffffffffffffffffff16901b9050600081905060006fffffffffffffffffffffffffffffffff821160071b808217915082811c92505067ffffffffffffffff821160061b808217915082811c92505063ffffffff821160051b808217915082811c92505061ffff821160041b808217915082811c92505060ff821160031b808217915082811c925050600f821160021b808217915082811c9250506003821160011b808217915082811c9250506001821180821791505060808110610dae57607f81610da491906115ba565b83901c9150610dc1565b80607f610dbb91906115ba565b83901b91505b60006040608083610dd29190611bed565b901b9050828302607f1c92508260801c80603f1b8217915083811c935050828302607f1c92508260801c80603e1b8217915083811c935050828302607f1c92508260801c80603d1b8217915083811c935050828302607f1c92508260801c80603c1b8217915083811c935050828302607f1c92508260801c80603b1b8217915083811c935050828302607f1c92508260801c80603a1b8217915083811c935050828302607f1c92508260801c8060391b8217915083811c935050828302607f1c92508260801c8060381b8217915083811c935050828302607f1c92508260801c8060371b8217915083811c935050828302607f1c92508260801c8060361b8217915083811c935050828302607f1c92508260801c8060351b8217915083811c935050828302607f1c92508260801c8060341b8217915083811c935050828302607f1c92508260801c8060331b8217915083811c935050828302607f1c92508260801c8060321b82179150506000693627a301d71055774c8582610f559190611c30565b9050600060806f028f6481ab7f045a5af012a19d003aaa83610f779190611bed565b901d9050600060806fdb2df09e81959a81455e260799a0632f84610f9b9190611ca8565b901d90508060020b8260020b14610ff5578873ffffffffffffffffffffffffffffffffffffffff16610fcc8261073b565b73ffffffffffffffffffffffffffffffffffffffff161115610fee5781610ff0565b805b610ff7565b815b975050505050505050919050565b6000816110188460020b8460020b6110b2565b6110229190611cec565b90507ffffffffffffffffffffffffffffffffffffffffffffffffffffffffffff2761860020b8160020b121561106557818161105e9190611d29565b90506110ac565b7ffffffffffffffffffffffffffffffffffffffffffffffffffffffffffff2761861108f90611a8b565b60020b8160020b13156110ab5781816110a89190611d84565b90505b5b92915050565b6000806110bf8484611108565b9050604081600f0b901d915067800000000000000068010000000000000000826110e99190611dec565b600f0b12611101576001826110fe9190611e1d565b91505b5092915050565b60008082600f0b0361111957600080fd5b600082600f0b604085600f0b901b81611135576111346114b5565b5b0590507fffffffffffffffffffffffffffffffff80000000000000000000000000000000600f0b811215801561117e57506f7fffffffffffffffffffffffffffffff600f0b8113155b61118757600080fd5b8091505092915050565b600080fd5b6000819050919050565b6111a981611196565b81146111b457600080fd5b50565b6000813590506111c6816111a0565b92915050565b6000602082840312156111e2576111e1611191565b5b60006111f0848285016111b7565b91505092915050565b61120281611196565b82525050565b600060208201905061121d60008301846111f9565b92915050565b600073ffffffffffffffffffffffffffffffffffffffff82169050919050565b6000819050919050565b600061126861126361125e84611223565b611243565b611223565b9050919050565b600061127a8261124d565b9050919050565b600061128c8261126f565b9050919050565b61129c81611281565b82525050565b60006020820190506112b76000830184611293565b92915050565b60008160020b9050919050565b6112d3816112bd565b81146112de57600080fd5b50565b6000813590506112f0816112ca565b92915050565b60006020828403121561130c5761130b611191565b5b600061131a848285016112e1565b91505092915050565b61132c81611223565b82525050565b60006020820190506113476000830184611323565b92915050565b61135681611223565b811461136157600080fd5b50565b6000813590506113738161134d565b92915050565b600080604083850312156113905761138f611191565b5b600061139e85828601611364565b92505060206113af858286016111b7565b9150509250929050565b6113c2816112bd565b82525050565b60006020820190506113dd60008301846113b9565b92915050565b6000602082840312156113f9576113f8611191565b5b600061140784828501611364565b91505092915050565b600061141b82611223565b9050919050565b61142b81611410565b811461143657600080fd5b50565b60008135905061144881611422565b92915050565b6000806000806080858703121561146857611467611191565b5b600061147687828801611439565b9450506020611487878288016111b7565b9350506040611498878288016111b7565b92505060606114a9878288016111b7565b91505092959194509250565b7f4e487b7100000000000000000000000000000000000000000000000000000000600052601260045260246000fd5b7f4e487b7100000000000000000000000000000000000000000000000000000000600052601160045260246000fd5b600061151e82611196565b915061152983611196565b925082611539576115386114b5565b5b828204905092915050565b600061154f82611196565b915061155a83611196565b9250828201905080821115611572576115716114e4565b5b92915050565b600061158382611196565b915061158e83611196565b925082820261159c81611196565b915082820484148315176115b3576115b26114e4565b5b5092915050565b60006115c582611196565b91506115d083611196565b92508282039050818111156115e8576115e76114e4565b5b92915050565b6000815190506115fd816112ca565b92915050565b60006020828403121561161957611618611191565b5b6000611627848285016115ee565b91505092915050565b60008151905061163f8161134d565b92915050565b600061ffff82169050919050565b61165c81611645565b811461166757600080fd5b50565b60008151905061167981611653565b92915050565b600060ff82169050919050565b6116958161167f565b81146116a057600080fd5b50565b6000815190506116b28161168c565b92915050565b60008115159050919050565b6116cd816116b8565b81146116d857600080fd5b50565b6000815190506116ea816116c4565b92915050565b600080600080600080600060e0888a03121561170f5761170e611191565b5b600061171d8a828b01611630565b975050602061172e8a828b016115ee565b965050604061173f8a828b0161166a565b95505060606117508a828b0161166a565b94505060806117618a828b0161166a565b93505060a06117728a828b016116a3565b92505060c06117838a828b016116db565b91505092959891949750929550565b6000815190506117a181611422565b92915050565b6000602082840312156117bd576117bc611191565b5b60006117cb84828501611792565b91505092915050565b600062ffffff82169050919050565b6117ec816117d4565b81146117f757600080fd5b50565b600081519050611809816117e3565b92915050565b60006020828403121561182557611824611191565b5b6000611833848285016117fa565b91505092915050565b61184581611410565b82525050565b611854816117d4565b82525050565b611863816112bd565b82525050565b61187281611196565b82525050565b6101608201600082015161188f600085018261183c565b5060208201516118a2602085018261183c565b5060408201516118b5604085018261184b565b5060608201516118c8606085018261185a565b5060808201516118db608085018261185a565b5060a08201516118ee60a0850182611869565b5060c082015161190160c0850182611869565b5060e082015161191460e0850182611869565b50610100820151611929610100850182611869565b5061012082015161193e61012085018261183c565b50610140820151611953610140850182611869565b50505050565b60006101608201905061196f6000830184611878565b92915050565b600081519050611984816111a0565b92915050565b60006fffffffffffffffffffffffffffffffff82169050919050565b6119af8161198a565b81146119ba57600080fd5b50565b6000815190506119cc816119a6565b92915050565b600080600080608085870312156119ec576119eb611191565b5b60006119fa87828801611975565b9450506020611a0b878288016119bd565b9350506040611a1c87828801611975565b9250506060611a2d87828801611975565b91505092959194509250565b6000819050919050565b6000611a4e82611a39565b91507f80000000000000000000000000000000000000000000000000000000000000008203611a8057611a7f6114e4565b5b816000039050919050565b6000611a96826112bd565b91507fffffffffffffffffffffffffffffffffffffffffffffffffffffffffff8000008203611ac857611ac76114e4565b5b816000039050919050565b600082825260208201905092915050565b7f5400000000000000000000000000000000000000000000000000000000000000600082015250565b6000611b1a600183611ad3565b9150611b2582611ae4565b602082019050919050565b60006020820190508181036000830152611b4981611b0d565b9050919050565b6000611b5b82611196565b9150611b6683611196565b925082611b7657611b756114b5565b5b828206905092915050565b7f5200000000000000000000000000000000000000000000000000000000000000600082015250565b6000611bb7600183611ad3565b9150611bc282611b81565b602082019050919050565b60006020820190508181036000830152611be681611baa565b9050919050565b6000611bf882611a39565b9150611c0383611a39565b9250828203905081811260008412168282136000851215161715611c2a57611c296114e4565b5b92915050565b6000611c3b82611a39565b9150611c4683611a39565b9250828202611c5481611a39565b91507f80000000000000000000000000000000000000000000000000000000000000008414600084121615611c8c57611c8b6114e4565b5b8282058414831517611ca157611ca06114e4565b5b5092915050565b6000611cb382611a39565b9150611cbe83611a39565b925082820190508281121560008312168382126000841215161715611ce657611ce56114e4565b5b92915050565b6000611cf7826112bd565b9150611d02836112bd565b9250828202611d10816112bd565b9150808214611d2257611d216114e4565b5b5092915050565b6000611d34826112bd565b9150611d3f836112bd565b925082820190507fffffffffffffffffffffffffffffffffffffffffffffffffffffffffff8000008112627fffff82131715611d7e57611d7d6114e4565b5b92915050565b6000611d8f826112bd565b9150611d9a836112bd565b92508282039050627fffff81137fffffffffffffffffffffffffffffffffffffffffffffffffffffffffff80000082121715611dd957611dd86114e4565b5b92915050565b600081600f0b9050919050565b6000611df782611ddf565b9150611e0283611ddf565b925082611e1257611e116114b5565b5b828207905092915050565b6000611e2882611ddf565b9150611e3383611ddf565b925082820190507fffffffffffffffffffffffffffffffff8000000000000000000000000000000081126f7fffffffffffffffffffffffffffffff82131715611e7f57611e7e6114e4565b5b9291505056fea264697066735822122017c7d7bcfe4474528f13ad5d0d857571675a4190153e718a2654b99ceacca64864736f6c63430008180033","opcodes":"PUSH1 0x80 PUSH1 0x40 MSTORE CALLVALUE DUP1 ISZERO PUSH3 0x11 JUMPI PUSH1 0x0 DUP1 REVERT JUMPDEST POP PUSH1 0x40 MLOAD PUSH3 0x1FE5 CODESIZE SUB DUP1 PUSH3 0x1FE5 DUP4 CODECOPY DUP2 DUP2 ADD PUSH1 0x40 MSTORE DUP2 ADD SWAP1 PUSH3 0x37 SWAP2 SWAP1 PUSH3 0xE8 JUMP JUMPDEST DUP1 PUSH1 0x0 DUP1 PUSH2 0x100 EXP DUP2 SLOAD DUP2 PUSH20 0xFFFFFFFFFFFFFFFFFFFFFFFFFFFFFFFFFFFFFFFF MUL NOT AND SWAP1 DUP4 PUSH20 0xFFFFFFFFFFFFFFFFFFFFFFFFFFFFFFFFFFFFFFFF AND MUL OR SWAP1 SSTORE POP POP PUSH3 0x11A JUMP JUMPDEST PUSH1 0x0 DUP1 REVERT JUMPDEST PUSH1 0x0 PUSH20 0xFFFFFFFFFFFFFFFFFFFFFFFFFFFFFFFFFFFFFFFF DUP3 AND SWAP1 POP SWAP2 SWAP1 POP JUMP JUMPDEST PUSH1 0x0 PUSH3 0xB0 DUP3 PUSH3 0x83 JUMP JUMPDEST SWAP1 POP SWAP2 SWAP1 POP JUMP JUMPDEST PUSH3 0xC2 DUP2 PUSH3 0xA3 JUMP JUMPDEST DUP2 EQ PUSH3 0xCE JUMPI PUSH1 0x0 DUP1 REVERT JUMPDEST POP JUMP JUMPDEST PUSH1 0x0 DUP2 MLOAD SWAP1 POP PUSH3 0xE2 DUP2 PUSH3 0xB7 JUMP JUMPDEST SWAP3 SWAP2 POP POP JUMP JUMPDEST PUSH1 0x0 PUSH1 0x20 DUP3 DUP5 SUB SLT ISZERO PUSH3 0x101 JUMPI PUSH3 0x100 PUSH3 0x7E JUMP JUMPDEST JUMPDEST PUSH1 0x0 PUSH3 0x111 DUP5 DUP3 DUP6 ADD PUSH3 0xD1 JUMP JUMPDEST SWAP2 POP POP SWAP3 SWAP2 POP POP JUMP JUMPDEST PUSH2 0x1EBB DUP1 PUSH3 0x12A PUSH1 0x0 CODECOPY PUSH1 0x0 RETURN INVALID PUSH1 0x80 PUSH1 0x40 MSTORE CALLVALUE DUP1 ISZERO PUSH2 0x10 JUMPI PUSH1 0x0 DUP1 REVERT JUMPDEST POP PUSH1 0x4 CALLDATASIZE LT PUSH2 0x7D JUMPI PUSH1 0x0 CALLDATALOAD PUSH1 0xE0 SHR DUP1 PUSH4 0xA2E0998D GT PUSH2 0x5B JUMPI DUP1 PUSH4 0xA2E0998D EQ PUSH2 0x100 JUMPI DUP1 PUSH4 0xC43D0C13 EQ PUSH2 0x130 JUMPI DUP1 PUSH4 0xD9C7C1A9 EQ PUSH2 0x160 JUMPI DUP1 PUSH4 0xF8C4EE6D EQ PUSH2 0x190 JUMPI PUSH2 0x7D JUMP JUMPDEST DUP1 PUSH4 0x677342CE EQ PUSH2 0x82 JUMPI DUP1 PUSH4 0x791B98BC EQ PUSH2 0xB2 JUMPI DUP1 PUSH4 0x7DFABF76 EQ PUSH2 0xD0 JUMPI JUMPDEST PUSH1 0x0 DUP1 REVERT JUMPDEST PUSH2 0x9C PUSH1 0x4 DUP1 CALLDATASIZE SUB DUP2 ADD SWAP1 PUSH2 0x97 SWAP2 SWAP1 PUSH2 0x11CC JUMP JUMPDEST PUSH2 0x1AC JUMP JUMPDEST PUSH1 0x40 MLOAD PUSH2 0xA9 SWAP2 SWAP1 PUSH2 0x1208 JUMP JUMPDEST PUSH1 0x40 MLOAD DUP1 SWAP2 SUB SWAP1 RETURN JUMPDEST PUSH2 0xBA PUSH2 0x226 JUMP JUMPDEST PUSH1 0x40 MLOAD PUSH2 0xC7 SWAP2 SWAP1 PUSH2 0x12A2 JUMP JUMPDEST PUSH1 0x40 MLOAD DUP1 SWAP2 SUB SWAP1 RETURN JUMPDEST PUSH2 0xEA PUSH1 0x4 DUP1 CALLDATASIZE SUB DUP2 ADD SWAP1 PUSH2 0xE5 SWAP2 SWAP1 PUSH2 0x12F6 JUMP JUMPDEST PUSH2 0x24A JUMP JUMPDEST PUSH1 0x40 MLOAD PUSH2 0xF7 SWAP2 SWAP1 PUSH2 0x1332 JUMP JUMPDEST PUSH1 0x40 MLOAD DUP1 SWAP2 SUB SWAP1 RETURN JUMPDEST PUSH2 0x11A PUSH1 0x4 DUP1 CALLDATASIZE SUB DUP2 ADD SWAP1 PUSH2 0x115 SWAP2 SWAP1 PUSH2 0x1379 JUMP JUMPDEST PUSH2 0x25C JUMP JUMPDEST PUSH1 0x40 MLOAD PUSH2 0x127 SWAP2 SWAP1 PUSH2 0x13C8 JUMP JUMPDEST PUSH1 0x40 MLOAD DUP1 SWAP2 SUB SWAP1 RETURN JUMPDEST PUSH2 0x14A PUSH1 0x4 DUP1 CALLDATASIZE SUB DUP2 ADD SWAP1 PUSH2 0x145 SWAP2 SWAP1 PUSH2 0x1379 JUMP JUMPDEST PUSH2 0x2C4 JUMP JUMPDEST PUSH1 0x40 MLOAD PUSH2 0x157 SWAP2 SWAP1 PUSH2 0x13C8 JUMP JUMPDEST PUSH1 0x40 MLOAD DUP1 SWAP2 SUB SWAP1 RETURN JUMPDEST PUSH2 0x17A PUSH1 0x4 DUP1 CALLDATASIZE SUB DUP2 ADD SWAP1 PUSH2 0x175 SWAP2 SWAP1 PUSH2 0x13E3 JUMP JUMPDEST PUSH2 0x32C JUMP JUMPDEST PUSH1 0x40 MLOAD PUSH2 0x187 SWAP2 SWAP1 PUSH2 0x1208 JUMP JUMPDEST PUSH1 0x40 MLOAD DUP1 SWAP2 SUB SWAP1 RETURN JUMPDEST PUSH2 0x1AA PUSH1 0x4 DUP1 CALLDATASIZE SUB DUP2 ADD SWAP1 PUSH2 0x1A5 SWAP2 SWAP1 PUSH2 0x144E JUMP JUMPDEST PUSH2 0x391 JUMP JUMPDEST STOP JUMPDEST PUSH1 0x0 PUSH1 0x3 DUP3 GT ISZERO PUSH2 0x213 JUMPI DUP2 SWAP1 POP PUSH1 0x0 PUSH1 0x1 PUSH1 0x2 DUP5 PUSH2 0x1CB SWAP2 SWAP1 PUSH2 0x1513 JUMP JUMPDEST PUSH2 0x1D5 SWAP2 SWAP1 PUSH2 0x1544 JUMP JUMPDEST SWAP1 POP JUMPDEST DUP2 DUP2 LT ISZERO PUSH2 0x20D JUMPI DUP1 SWAP2 POP PUSH1 0x2 DUP2 DUP3 DUP6 PUSH2 0x1F2 SWAP2 SWAP1 PUSH2 0x1513 JUMP JUMPDEST PUSH2 0x1FC SWAP2 SWAP1 PUSH2 0x1544 JUMP JUMPDEST PUSH2 0x206 SWAP2 SWAP1 PUSH2 0x1513 JUMP JUMPDEST SWAP1 POP PUSH2 0x1D8 JUMP JUMPDEST POP PUSH2 0x221 JUMP JUMPDEST PUSH1 0x0 DUP3 EQ PUSH2 0x220 JUMPI PUSH1 0x1 SWAP1 POP JUMPDEST JUMPDEST SWAP2 SWAP1 POP JUMP JUMPDEST PUSH1 0x0 DUP1 SLOAD SWAP1 PUSH2 0x100 EXP SWAP1 DIV PUSH20 0xFFFFFFFFFFFFFFFFFFFFFFFFFFFFFFFFFFFFFFFF AND DUP2 JUMP JUMPDEST PUSH1 0x0 PUSH2 0x255 DUP3 PUSH2 0x73B JUMP JUMPDEST SWAP1 POP SWAP2 SWAP1 POP JUMP JUMPDEST PUSH1 0x0 DUP1 PUSH2 0x2B8 PUSH2 0x2710 PUSH2 0x288 PUSH2 0x2710 DUP7 PUSH2 0x2710 PUSH2 0x279 SWAP2 SWAP1 PUSH2 0x1544 JUMP JUMPDEST PUSH2 0x283 SWAP2 SWAP1 PUSH2 0x1578 JUMP JUMPDEST PUSH2 0x1AC JUMP JUMPDEST DUP7 PUSH20 0xFFFFFFFFFFFFFFFFFFFFFFFFFFFFFFFFFFFFFFFF AND PUSH2 0x2A9 SWAP2 SWAP1 PUSH2 0x1578 JUMP JUMPDEST PUSH2 0x2B3 SWAP2 SWAP1 PUSH2 0x1513 JUMP JUMPDEST PUSH2 0xC06 JUMP JUMPDEST SWAP1 POP DUP1 SWAP2 POP POP SWAP3 SWAP2 POP POP JUMP JUMPDEST PUSH1 0x0 DUP1 PUSH2 0x320 PUSH2 0x2710 PUSH2 0x2F0 PUSH2 0x2710 DUP7 PUSH2 0x2710 PUSH2 0x2E1 SWAP2 SWAP1 PUSH2 0x15BA JUMP JUMPDEST PUSH2 0x2EB SWAP2 SWAP1 PUSH2 0x1578 JUMP JUMPDEST PUSH2 0x1AC JUMP JUMPDEST DUP7 PUSH20 0xFFFFFFFFFFFFFFFFFFFFFFFFFFFFFFFFFFFFFFFF AND PUSH2 0x311 SWAP2 SWAP1 PUSH2 0x1578 JUMP JUMPDEST PUSH2 0x31B SWAP2 SWAP1 PUSH2 0x1513 JUMP JUMPDEST PUSH2 0xC06 JUMP JUMPDEST SWAP1 POP DUP1 SWAP2 POP POP SWAP3 SWAP2 POP POP JUMP JUMPDEST PUSH1 0x0 PUSH25 0x1000000000000000000000000000000000000000000000000 DUP3 PUSH20 0xFFFFFFFFFFFFFFFFFFFFFFFFFFFFFFFFFFFFFFFF AND DUP4 PUSH20 0xFFFFFFFFFFFFFFFFFFFFFFFFFFFFFFFFFFFFFFFF AND PUSH2 0x380 SWAP2 SWAP1 PUSH2 0x1578 JUMP JUMPDEST PUSH2 0x38A SWAP2 SWAP1 PUSH2 0x1513 JUMP JUMPDEST SWAP1 POP SWAP2 SWAP1 POP JUMP JUMPDEST PUSH1 0x0 DUP5 SWAP1 POP PUSH1 0x0 DUP2 PUSH20 0xFFFFFFFFFFFFFFFFFFFFFFFFFFFFFFFFFFFFFFFF AND PUSH4 0xD0C93A7C PUSH1 0x40 MLOAD DUP2 PUSH4 0xFFFFFFFF AND PUSH1 0xE0 SHL DUP2 MSTORE PUSH1 0x4 ADD PUSH1 0x20 PUSH1 0x40 MLOAD DUP1 DUP4 SUB DUP2 DUP7 GAS STATICCALL ISZERO DUP1 ISZERO PUSH2 0x3E3 JUMPI RETURNDATASIZE PUSH1 0x0 DUP1 RETURNDATACOPY RETURNDATASIZE PUSH1 0x0 REVERT JUMPDEST POP POP POP POP PUSH1 0x40 MLOAD RETURNDATASIZE PUSH1 0x1F NOT PUSH1 0x1F DUP3 ADD AND DUP3 ADD DUP1 PUSH1 0x40 MSTORE POP DUP2 ADD SWAP1 PUSH2 0x407 SWAP2 SWAP1 PUSH2 0x1603 JUMP JUMPDEST SWAP1 POP PUSH1 0x0 DUP1 DUP4 PUSH20 0xFFFFFFFFFFFFFFFFFFFFFFFFFFFFFFFFFFFFFFFF AND PUSH4 0x3850C7BD PUSH1 0x40 MLOAD DUP2 PUSH4 0xFFFFFFFF AND PUSH1 0xE0 SHL DUP2 MSTORE PUSH1 0x4 ADD PUSH1 0xE0 PUSH1 0x40 MLOAD DUP1 DUP4 SUB DUP2 DUP7 GAS STATICCALL ISZERO DUP1 ISZERO PUSH2 0x457 JUMPI RETURNDATASIZE PUSH1 0x0 DUP1 RETURNDATACOPY RETURNDATASIZE PUSH1 0x0 REVERT JUMPDEST POP POP POP POP PUSH1 0x40 MLOAD RETURNDATASIZE PUSH1 0x1F NOT PUSH1 0x1F DUP3 ADD AND DUP3 ADD DUP1 PUSH1 0x40 MSTORE POP DUP2 ADD SWAP1 PUSH2 0x47B SWAP2 SWAP1 PUSH2 0x16F0 JUMP JUMPDEST POP POP POP POP POP SWAP2 POP SWAP2 POP PUSH1 0x0 DUP1 PUSH1 0x0 SWAP1 SLOAD SWAP1 PUSH2 0x100 EXP SWAP1 DIV PUSH20 0xFFFFFFFFFFFFFFFFFFFFFFFFFFFFFFFFFFFFFFFF AND PUSH20 0xFFFFFFFFFFFFFFFFFFFFFFFFFFFFFFFFFFFFFFFF AND PUSH4 0x88316456 PUSH1 0x40 MLOAD DUP1 PUSH2 0x160 ADD PUSH1 0x40 MSTORE DUP1 DUP9 PUSH20 0xFFFFFFFFFFFFFFFFFFFFFFFFFFFFFFFFFFFFFFFF AND PUSH4 0xDFE1681 PUSH1 0x40 MLOAD DUP2 PUSH4 0xFFFFFFFF AND PUSH1 0xE0 SHL DUP2 MSTORE PUSH1 0x4 ADD PUSH1 0x20 PUSH1 0x40 MLOAD DUP1 DUP4 SUB DUP2 DUP7 GAS STATICCALL ISZERO DUP1 ISZERO PUSH2 0x51A JUMPI RETURNDATASIZE PUSH1 0x0 DUP1 RETURNDATACOPY RETURNDATASIZE PUSH1 0x0 REVERT JUMPDEST POP POP POP POP PUSH1 0x40 MLOAD RETURNDATASIZE PUSH1 0x1F NOT PUSH1 0x1F DUP3 ADD AND DUP3 ADD DUP1 PUSH1 0x40 MSTORE POP DUP2 ADD SWAP1 PUSH2 0x53E SWAP2 SWAP1 PUSH2 0x17A7 JUMP JUMPDEST PUSH20 0xFFFFFFFFFFFFFFFFFFFFFFFFFFFFFFFFFFFFFFFF AND DUP2 MSTORE PUSH1 0x20 ADD DUP9 PUSH20 0xFFFFFFFFFFFFFFFFFFFFFFFFFFFFFFFFFFFFFFFF AND PUSH4 0xD21220A7 PUSH1 0x40 MLOAD DUP2 PUSH4 0xFFFFFFFF AND PUSH1 0xE0 SHL DUP2 MSTORE PUSH1 0x4 ADD PUSH1 0x20 PUSH1 0x40 MLOAD DUP1 DUP4 SUB DUP2 DUP7 GAS STATICCALL ISZERO DUP1 ISZERO PUSH2 0x5A4 JUMPI RETURNDATASIZE PUSH1 0x0 DUP1 RETURNDATACOPY RETURNDATASIZE PUSH1 0x0 REVERT JUMPDEST POP POP POP POP PUSH1 0x40 MLOAD RETURNDATASIZE PUSH1 0x1F NOT PUSH1 0x1F DUP3 ADD AND DUP3 ADD DUP1 PUSH1 0x40 MSTORE POP DUP2 ADD SWAP1 PUSH2 0x5C8 SWAP2 SWAP1 PUSH2 0x17A7 JUMP JUMPDEST PUSH20 0xFFFFFFFFFFFFFFFFFFFFFFFFFFFFFFFFFFFFFFFF AND DUP2 MSTORE PUSH1 0x20 ADD DUP9 PUSH20 0xFFFFFFFFFFFFFFFFFFFFFFFFFFFFFFFFFFFFFFFF AND PUSH4 0xDDCA3F43 PUSH1 0x40 MLOAD DUP2 PUSH4 0xFFFFFFFF AND PUSH1 0xE0 SHL DUP2 MSTORE PUSH1 0x4 ADD PUSH1 0x20 PUSH1 0x40 MLOAD DUP1 DUP4 SUB DUP2 DUP7 GAS STATICCALL ISZERO DUP1 ISZERO PUSH2 0x62E JUMPI RETURNDATASIZE PUSH1 0x0 DUP1 RETURNDATACOPY RETURNDATASIZE PUSH1 0x0 REVERT JUMPDEST POP POP POP POP PUSH1 0x40 MLOAD RETURNDATASIZE PUSH1 0x1F NOT PUSH1 0x1F DUP3 ADD AND DUP3 ADD DUP1 PUSH1 0x40 MSTORE POP DUP2 ADD SWAP1 PUSH2 0x652 SWAP2 SWAP1 PUSH2 0x180F JUMP JUMPDEST PUSH3 0xFFFFFF AND DUP2 MSTORE PUSH1 0x20 ADD PUSH2 0x66F PUSH2 0x669 DUP9 DUP13 PUSH2 0x2C4 JUMP JUMPDEST DUP10 PUSH2 0x1005 JUMP JUMPDEST PUSH1 0x2 SIGNEXTEND DUP2 MSTORE PUSH1 0x20 ADD PUSH2 0x68A PUSH2 0x684 DUP9 DUP13 PUSH2 0x25C JUMP JUMPDEST DUP10 PUSH2 0x1005 JUMP JUMPDEST PUSH1 0x2 SIGNEXTEND DUP2 MSTORE PUSH1 0x20 ADD DUP12 DUP2 MSTORE PUSH1 0x20 ADD DUP11 DUP2 MSTORE PUSH1 0x20 ADD PUSH1 0x0 DUP2 MSTORE PUSH1 0x20 ADD PUSH1 0x0 DUP2 MSTORE PUSH1 0x20 ADD CALLER PUSH20 0xFFFFFFFFFFFFFFFFFFFFFFFFFFFFFFFFFFFFFFFF AND DUP2 MSTORE PUSH1 0x20 ADD TIMESTAMP DUP2 MSTORE POP PUSH1 0x40 MLOAD DUP3 PUSH4 0xFFFFFFFF AND PUSH1 0xE0 SHL DUP2 MSTORE PUSH1 0x4 ADD PUSH2 0x6E8 SWAP2 SWAP1 PUSH2 0x1959 JUMP JUMPDEST PUSH1 0x80 PUSH1 0x40 MLOAD DUP1 DUP4 SUB DUP2 PUSH1 0x0 DUP8 GAS CALL ISZERO DUP1 ISZERO PUSH2 0x707 JUMPI RETURNDATASIZE PUSH1 0x0 DUP1 RETURNDATACOPY RETURNDATASIZE PUSH1 0x0 REVERT JUMPDEST POP POP POP POP PUSH1 0x40 MLOAD RETURNDATASIZE PUSH1 0x1F NOT PUSH1 0x1F DUP3 ADD AND DUP3 ADD DUP1 PUSH1 0x40 MSTORE POP DUP2 ADD SWAP1 PUSH2 0x72B SWAP2 SWAP1 PUSH2 0x19D2 JUMP JUMPDEST POP POP POP SWAP1 POP POP POP POP POP POP POP POP POP POP JUMP JUMPDEST PUSH1 0x0 DUP1 PUSH1 0x0 DUP4 PUSH1 0x2 SIGNEXTEND SLT PUSH2 0x752 JUMPI DUP3 PUSH1 0x2 SIGNEXTEND PUSH2 0x760 JUMP JUMPDEST DUP3 PUSH1 0x2 SIGNEXTEND PUSH2 0x75F SWAP1 PUSH2 0x1A43 JUMP JUMPDEST JUMPDEST SWAP1 POP PUSH32 0xFFFFFFFFFFFFFFFFFFFFFFFFFFFFFFFFFFFFFFFFFFFFFFFFFFFFFFFFFFF27618 PUSH2 0x78C SWAP1 PUSH2 0x1A8B JUMP JUMPDEST PUSH1 0x2 SIGNEXTEND DUP2 GT ISZERO PUSH2 0x7D1 JUMPI PUSH1 0x40 MLOAD PUSH32 0x8C379A000000000000000000000000000000000000000000000000000000000 DUP2 MSTORE PUSH1 0x4 ADD PUSH2 0x7C8 SWAP1 PUSH2 0x1B30 JUMP JUMPDEST PUSH1 0x40 MLOAD DUP1 SWAP2 SUB SWAP1 REVERT JUMPDEST PUSH1 0x0 DUP1 PUSH1 0x1 DUP4 AND SUB PUSH2 0x7F4 JUMPI PUSH17 0x100000000000000000000000000000000 PUSH2 0x806 JUMP JUMPDEST PUSH16 0xFFFCB933BD6FAD37AA2D162D1A594001 JUMPDEST PUSH17 0xFFFFFFFFFFFFFFFFFFFFFFFFFFFFFFFFFF AND SWAP1 POP PUSH1 0x0 PUSH1 0x2 DUP4 AND EQ PUSH2 0x849 JUMPI PUSH1 0x80 PUSH16 0xFFF97272373D413259A46990580E213A DUP3 PUSH2 0x844 SWAP2 SWAP1 PUSH2 0x1578 JUMP JUMPDEST SWAP1 SHR SWAP1 POP JUMPDEST PUSH1 0x0 PUSH1 0x4 DUP4 AND EQ PUSH2 0x877 JUMPI PUSH1 0x80 PUSH16 0xFFF2E50F5F656932EF12357CF3C7FDCC DUP3 PUSH2 0x872 SWAP2 SWAP1 PUSH2 0x1578 JUMP JUMPDEST SWAP1 SHR SWAP1 POP JUMPDEST PUSH1 0x0 PUSH1 0x8 DUP4 AND EQ PUSH2 0x8A5 JUMPI PUSH1 0x80 PUSH16 0xFFE5CACA7E10E4E61C3624EAA0941CD0 DUP3 PUSH2 0x8A0 SWAP2 SWAP1 PUSH2 0x1578 JUMP JUMPDEST SWAP1 SHR SWAP1 POP JUMPDEST PUSH1 0x0 PUSH1 0x10 DUP4 AND EQ PUSH2 0x8D3 JUMPI PUSH1 0x80 PUSH16 0xFFCB9843D60F6159C9DB58835C926644 DUP3 PUSH2 0x8CE SWAP2 SWAP1 PUSH2 0x1578 JUMP JUMPDEST SWAP1 SHR SWAP1 POP JUMPDEST PUSH1 0x0 PUSH1 0x20 DUP4 AND EQ PUSH2 0x901 JUMPI PUSH1 0x80 PUSH16 0xFF973B41FA98C081472E6896DFB254C0 DUP3 PUSH2 0x8FC SWAP2 SWAP1 PUSH2 0x1578 JUMP JUMPDEST SWAP1 SHR SWAP1 POP JUMPDEST PUSH1 0x0 PUSH1 0x40 DUP4 AND EQ PUSH2 0x92F JUMPI PUSH1 0x80 PUSH16 0xFF2EA16466C96A3843EC78B326B52861 DUP3 PUSH2 0x92A SWAP2 SWAP1 PUSH2 0x1578 JUMP JUMPDEST SWAP1 SHR SWAP1 POP JUMPDEST PUSH1 0x0 PUSH1 0x80 DUP4 AND EQ PUSH2 0x95D JUMPI PUSH1 0x80 PUSH16 0xFE5DEE046A99A2A811C461F1969C3053 DUP3 PUSH2 0x958 SWAP2 SWAP1 PUSH2 0x1578 JUMP JUMPDEST SWAP1 SHR SWAP1 POP JUMPDEST PUSH1 0x0 PUSH2 0x100 DUP4 AND EQ PUSH2 0x98C JUMPI PUSH1 0x80 PUSH16 0xFCBE86C7900A88AEDCFFC83B479AA3A4 DUP3 PUSH2 0x987 SWAP2 SWAP1 PUSH2 0x1578 JUMP JUMPDEST SWAP1 SHR SWAP1 POP JUMPDEST PUSH1 0x0 PUSH2 0x200 DUP4 AND EQ PUSH2 0x9BB JUMPI PUSH1 0x80 PUSH16 0xF987A7253AC413176F2B074CF7815E54 DUP3 PUSH2 0x9B6 SWAP2 SWAP1 PUSH2 0x1578 JUMP JUMPDEST SWAP1 SHR SWAP1 POP JUMPDEST PUSH1 0x0 PUSH2 0x400 DUP4 AND EQ PUSH2 0x9EA JUMPI PUSH1 0x80 PUSH16 0xF3392B0822B70005940C7A398E4B70F3 DUP3 PUSH2 0x9E5 SWAP2 SWAP1 PUSH2 0x1578 JUMP JUMPDEST SWAP1 SHR SWAP1 POP JUMPDEST PUSH1 0x0 PUSH2 0x800 DUP4 AND EQ PUSH2 0xA19 JUMPI PUSH1 0x80 PUSH16 0xE7159475A2C29B7443B29C7FA6E889D9 DUP3 PUSH2 0xA14 SWAP2 SWAP1 PUSH2 0x1578 JUMP JUMPDEST SWAP1 SHR SWAP1 POP JUMPDEST PUSH1 0x0 PUSH2 0x1000 DUP4 AND EQ PUSH2 0xA48 JUMPI PUSH1 0x80 PUSH16 0xD097F3BDFD2022B8845AD8F792AA5825 DUP3 PUSH2 0xA43 SWAP2 SWAP1 PUSH2 0x1578 JUMP JUMPDEST SWAP1 SHR SWAP1 POP JUMPDEST PUSH1 0x0 PUSH2 0x2000 DUP4 AND EQ PUSH2 0xA77 JUMPI PUSH1 0x80 PUSH16 0xA9F746462D870FDF8A65DC1F90E061E5 DUP3 PUSH2 0xA72 SWAP2 SWAP1 PUSH2 0x1578 JUMP JUMPDEST SWAP1 SHR SWAP1 POP JUMPDEST PUSH1 0x0 PUSH2 0x4000 DUP4 AND EQ PUSH2 0xAA6 JUMPI PUSH1 0x80 PUSH16 0x70D869A156D2A1B890BB3DF62BAF32F7 DUP3 PUSH2 0xAA1 SWAP2 SWAP1 PUSH2 0x1578 JUMP JUMPDEST SWAP1 SHR SWAP1 POP JUMPDEST PUSH1 0x0 PUSH2 0x8000 DUP4 AND EQ PUSH2 0xAD5 JUMPI PUSH1 0x80 PUSH16 0x31BE135F97D08FD981231505542FCFA6 DUP3 PUSH2 0xAD0 SWAP2 SWAP1 PUSH2 0x1578 JUMP JUMPDEST SWAP1 SHR SWAP1 POP JUMPDEST PUSH1 0x0 PUSH3 0x10000 DUP4 AND EQ PUSH2 0xB05 JUMPI PUSH1 0x80 PUSH16 0x9AA508B5B7A84E1C677DE54F3E99BC9 DUP3 PUSH2 0xB00 SWAP2 SWAP1 PUSH2 0x1578 JUMP JUMPDEST SWAP1 SHR SWAP1 POP JUMPDEST PUSH1 0x0 PUSH3 0x20000 DUP4 AND EQ PUSH2 0xB34 JUMPI PUSH1 0x80 PUSH15 0x5D6AF8DEDB81196699C329225EE604 DUP3 PUSH2 0xB2F SWAP2 SWAP1 PUSH2 0x1578 JUMP JUMPDEST SWAP1 SHR SWAP1 POP JUMPDEST PUSH1 0x0 PUSH3 0x40000 DUP4 AND EQ PUSH2 0xB62 JUMPI PUSH1 0x80 PUSH14 0x2216E584F5FA1EA926041BEDFE98 DUP3 PUSH2 0xB5D SWAP2 SWAP1 PUSH2 0x1578 JUMP JUMPDEST SWAP1 SHR SWAP1 POP JUMPDEST PUSH1 0x0 PUSH3 0x80000 DUP4 AND EQ PUSH2 0xB8E JUMPI PUSH1 0x80 PUSH12 0x48A170391F7DC42444E8FA2 DUP3 PUSH2 0xB89 SWAP2 SWAP1 PUSH2 0x1578 JUMP JUMPDEST SWAP1 SHR SWAP1 POP JUMPDEST PUSH1 0x0 DUP5 PUSH1 0x2 SIGNEXTEND SGT ISZERO PUSH2 0xBC9 JUMPI DUP1 PUSH32 0xFFFFFFFFFFFFFFFFFFFFFFFFFFFFFFFFFFFFFFFFFFFFFFFFFFFFFFFFFFFFFFFF PUSH2 0xBC6 SWAP2 SWAP1 PUSH2 0x1513 JUMP JUMPDEST SWAP1 POP JUMPDEST PUSH1 0x0 PUSH5 0x100000000 DUP3 PUSH2 0xBDC SWAP2 SWAP1 PUSH2 0x1B50 JUMP JUMPDEST EQ PUSH2 0xBE8 JUMPI PUSH1 0x1 PUSH2 0xBEB JUMP JUMPDEST PUSH1 0x0 JUMPDEST PUSH1 0xFF AND PUSH1 0x20 DUP3 SWAP1 SHR PUSH2 0xBFD SWAP2 SWAP1 PUSH2 0x1544 JUMP JUMPDEST SWAP3 POP POP POP SWAP2 SWAP1 POP JUMP JUMPDEST PUSH1 0x0 PUSH5 0x1000276A3 PUSH20 0xFFFFFFFFFFFFFFFFFFFFFFFFFFFFFFFFFFFFFFFF AND DUP3 PUSH20 0xFFFFFFFFFFFFFFFFFFFFFFFFFFFFFFFFFFFFFFFF AND LT ISZERO DUP1 ISZERO PUSH2 0xC88 JUMPI POP PUSH20 0xFFFD8963EFD1FC6A506488495D951D5263988D26 PUSH20 0xFFFFFFFFFFFFFFFFFFFFFFFFFFFFFFFFFFFFFFFF AND DUP3 PUSH20 0xFFFFFFFFFFFFFFFFFFFFFFFFFFFFFFFFFFFFFFFF AND LT JUMPDEST PUSH2 0xCC7 JUMPI PUSH1 0x40 MLOAD PUSH32 0x8C379A000000000000000000000000000000000000000000000000000000000 DUP2 MSTORE PUSH1 0x4 ADD PUSH2 0xCBE SWAP1 PUSH2 0x1BCD JUMP JUMPDEST PUSH1 0x40 MLOAD DUP1 SWAP2 SUB SWAP1 REVERT JUMPDEST PUSH1 0x0 PUSH1 0x20 DUP4 PUSH20 0xFFFFFFFFFFFFFFFFFFFFFFFFFFFFFFFFFFFFFFFF AND SWAP1 SHL SWAP1 POP PUSH1 0x0 DUP2 SWAP1 POP PUSH1 0x0 PUSH16 0xFFFFFFFFFFFFFFFFFFFFFFFFFFFFFFFF DUP3 GT PUSH1 0x7 SHL DUP1 DUP3 OR SWAP2 POP DUP3 DUP2 SHR SWAP3 POP POP PUSH8 0xFFFFFFFFFFFFFFFF DUP3 GT PUSH1 0x6 SHL DUP1 DUP3 OR SWAP2 POP DUP3 DUP2 SHR SWAP3 POP POP PUSH4 0xFFFFFFFF DUP3 GT PUSH1 0x5 SHL DUP1 DUP3 OR SWAP2 POP DUP3 DUP2 SHR SWAP3 POP POP PUSH2 0xFFFF DUP3 GT PUSH1 0x4 SHL DUP1 DUP3 OR SWAP2 POP DUP3 DUP2 SHR SWAP3 POP POP PUSH1 0xFF DUP3 GT PUSH1 0x3 SHL DUP1 DUP3 OR SWAP2 POP DUP3 DUP2 SHR SWAP3 POP POP PUSH1 0xF DUP3 GT PUSH1 0x2 SHL DUP1 DUP3 OR SWAP2 POP DUP3 DUP2 SHR SWAP3 POP POP PUSH1 0x3 DUP3 GT PUSH1 0x1 SHL DUP1 DUP3 OR SWAP2 POP DUP3 DUP2 SHR SWAP3 POP POP PUSH1 0x1 DUP3 GT DUP1 DUP3 OR SWAP2 POP POP PUSH1 0x80 DUP2 LT PUSH2 0xDAE JUMPI PUSH1 0x7F DUP2 PUSH2 0xDA4 SWAP2 SWAP1 PUSH2 0x15BA JUMP JUMPDEST DUP4 SWAP1 SHR SWAP2 POP PUSH2 0xDC1 JUMP JUMPDEST DUP1 PUSH1 0x7F PUSH2 0xDBB SWAP2 SWAP1 PUSH2 0x15BA JUMP JUMPDEST DUP4 SWAP1 SHL SWAP2 POP JUMPDEST PUSH1 0x0 PUSH1 0x40 PUSH1 0x80 DUP4 PUSH2 0xDD2 SWAP2 SWAP1 PUSH2 0x1BED JUMP JUMPDEST SWAP1 SHL SWAP1 POP DUP3 DUP4 MUL PUSH1 0x7F SHR SWAP3 POP DUP3 PUSH1 0x80 SHR DUP1 PUSH1 0x3F SHL DUP3 OR SWAP2 POP DUP4 DUP2 SHR SWAP4 POP POP DUP3 DUP4 MUL PUSH1 0x7F SHR SWAP3 POP DUP3 PUSH1 0x80 SHR DUP1 PUSH1 0x3E SHL DUP3 OR SWAP2 POP DUP4 DUP2 SHR SWAP4 POP POP DUP3 DUP4 MUL PUSH1 0x7F SHR SWAP3 POP DUP3 PUSH1 0x80 SHR DUP1 PUSH1 0x3D SHL DUP3 OR SWAP2 POP DUP4 DUP2 SHR SWAP4 POP POP DUP3 DUP4 MUL PUSH1 0x7F SHR SWAP3 POP DUP3 PUSH1 0x80 SHR DUP1 PUSH1 0x3C SHL DUP3 OR SWAP2 POP DUP4 DUP2 SHR SWAP4 POP POP DUP3 DUP4 MUL PUSH1 0x7F SHR SWAP3 POP DUP3 PUSH1 0x80 SHR DUP1 PUSH1 0x3B SHL DUP3 OR SWAP2 POP DUP4 DUP2 SHR SWAP4 POP POP DUP3 DUP4 MUL PUSH1 0x7F SHR SWAP3 POP DUP3 PUSH1 0x80 SHR DUP1 PUSH1 0x3A SHL DUP3 OR SWAP2 POP DUP4 DUP2 SHR SWAP4 POP POP DUP3 DUP4 MUL PUSH1 0x7F SHR SWAP3 POP DUP3 PUSH1 0x80 SHR DUP1 PUSH1 0x39 SHL DUP3 OR SWAP2 POP DUP4 DUP2 SHR SWAP4 POP POP DUP3 DUP4 MUL PUSH1 0x7F SHR SWAP3 POP DUP3 PUSH1 0x80 SHR DUP1 PUSH1 0x38 SHL DUP3 OR SWAP2 POP DUP4 DUP2 SHR SWAP4 POP POP DUP3 DUP4 MUL PUSH1 0x7F SHR SWAP3 POP DUP3 PUSH1 0x80 SHR DUP1 PUSH1 0x37 SHL DUP3 OR SWAP2 POP DUP4 DUP2 SHR SWAP4 POP POP DUP3 DUP4 MUL PUSH1 0x7F SHR SWAP3 POP DUP3 PUSH1 0x80 SHR DUP1 PUSH1 0x36 SHL DUP3 OR SWAP2 POP DUP4 DUP2 SHR SWAP4 POP POP DUP3 DUP4 MUL PUSH1 0x7F SHR SWAP3 POP DUP3 PUSH1 0x80 SHR DUP1 PUSH1 0x35 SHL DUP3 OR SWAP2 POP DUP4 DUP2 SHR SWAP4 POP POP DUP3 DUP4 MUL PUSH1 0x7F SHR SWAP3 POP DUP3 PUSH1 0x80 SHR DUP1 PUSH1 0x34 SHL DUP3 OR SWAP2 POP DUP4 DUP2 SHR SWAP4 POP POP DUP3 DUP4 MUL PUSH1 0x7F SHR SWAP3 POP DUP3 PUSH1 0x80 SHR DUP1 PUSH1 0x33 SHL DUP3 OR SWAP2 POP DUP4 DUP2 SHR SWAP4 POP POP DUP3 DUP4 MUL PUSH1 0x7F SHR SWAP3 POP DUP3 PUSH1 0x80 SHR DUP1 PUSH1 0x32 SHL DUP3 OR SWAP2 POP POP PUSH1 0x0 PUSH10 0x3627A301D71055774C85 DUP3 PUSH2 0xF55 SWAP2 SWAP1 PUSH2 0x1C30 JUMP JUMPDEST SWAP1 POP PUSH1 0x0 PUSH1 0x80 PUSH16 0x28F6481AB7F045A5AF012A19D003AAA DUP4 PUSH2 0xF77 SWAP2 SWAP1 PUSH2 0x1BED JUMP JUMPDEST SWAP1 SAR SWAP1 POP PUSH1 0x0 PUSH1 0x80 PUSH16 0xDB2DF09E81959A81455E260799A0632F DUP5 PUSH2 0xF9B SWAP2 SWAP1 PUSH2 0x1CA8 JUMP JUMPDEST SWAP1 SAR SWAP1 POP DUP1 PUSH1 0x2 SIGNEXTEND DUP3 PUSH1 0x2 SIGNEXTEND EQ PUSH2 0xFF5 JUMPI DUP9 PUSH20 0xFFFFFFFFFFFFFFFFFFFFFFFFFFFFFFFFFFFFFFFF AND PUSH2 0xFCC DUP3 PUSH2 0x73B JUMP JUMPDEST PUSH20 0xFFFFFFFFFFFFFFFFFFFFFFFFFFFFFFFFFFFFFFFF AND GT ISZERO PUSH2 0xFEE JUMPI DUP2 PUSH2 0xFF0 JUMP JUMPDEST DUP1 JUMPDEST PUSH2 0xFF7 JUMP JUMPDEST DUP2 JUMPDEST SWAP8 POP POP POP POP POP POP POP POP SWAP2 SWAP1 POP JUMP JUMPDEST PUSH1 0x0 DUP2 PUSH2 0x1018 DUP5 PUSH1 0x2 SIGNEXTEND DUP5 PUSH1 0x2 SIGNEXTEND PUSH2 0x10B2 JUMP JUMPDEST PUSH2 0x1022 SWAP2 SWAP1 PUSH2 0x1CEC JUMP JUMPDEST SWAP1 POP PUSH32 0xFFFFFFFFFFFFFFFFFFFFFFFFFFFFFFFFFFFFFFFFFFFFFFFFFFFFFFFFFFF27618 PUSH1 0x2 SIGNEXTEND DUP2 PUSH1 0x2 SIGNEXTEND SLT ISZERO PUSH2 0x1065 JUMPI DUP2 DUP2 PUSH2 0x105E SWAP2 SWAP1 PUSH2 0x1D29 JUMP JUMPDEST SWAP1 POP PUSH2 0x10AC JUMP JUMPDEST PUSH32 0xFFFFFFFFFFFFFFFFFFFFFFFFFFFFFFFFFFFFFFFFFFFFFFFFFFFFFFFFFFF27618 PUSH2 0x108F SWAP1 PUSH2 0x1A8B JUMP JUMPDEST PUSH1 0x2 SIGNEXTEND DUP2 PUSH1 0x2 SIGNEXTEND SGT ISZERO PUSH2 0x10AB JUMPI DUP2 DUP2 PUSH2 0x10A8 SWAP2 SWAP1 PUSH2 0x1D84 JUMP JUMPDEST SWAP1 POP JUMPDEST JUMPDEST SWAP3 SWAP2 POP POP JUMP JUMPDEST PUSH1 0x0 DUP1 PUSH2 0x10BF DUP5 DUP5 PUSH2 0x1108 JUMP JUMPDEST SWAP1 POP PUSH1 0x40 DUP2 PUSH1 0xF SIGNEXTEND SWAP1 SAR SWAP2 POP PUSH8 0x8000000000000000 PUSH9 0x10000000000000000 DUP3 PUSH2 0x10E9 SWAP2 SWAP1 PUSH2 0x1DEC JUMP JUMPDEST PUSH1 0xF SIGNEXTEND SLT PUSH2 0x1101 JUMPI PUSH1 0x1 DUP3 PUSH2 0x10FE SWAP2 SWAP1 PUSH2 0x1E1D JUMP JUMPDEST SWAP2 POP JUMPDEST POP SWAP3 SWAP2 POP POP JUMP JUMPDEST PUSH1 0x0 DUP1 DUP3 PUSH1 0xF SIGNEXTEND SUB PUSH2 0x1119 JUMPI PUSH1 0x0 DUP1 REVERT JUMPDEST PUSH1 0x0 DUP3 PUSH1 0xF SIGNEXTEND PUSH1 0x40 DUP6 PUSH1 0xF SIGNEXTEND SWAP1 SHL DUP2 PUSH2 0x1135 JUMPI PUSH2 0x1134 PUSH2 0x14B5 JUMP JUMPDEST JUMPDEST SDIV SWAP1 POP PUSH32 0xFFFFFFFFFFFFFFFFFFFFFFFFFFFFFFFF80000000000000000000000000000000 PUSH1 0xF SIGNEXTEND DUP2 SLT ISZERO DUP1 ISZERO PUSH2 0x117E JUMPI POP PUSH16 0x7FFFFFFFFFFFFFFFFFFFFFFFFFFFFFFF PUSH1 0xF SIGNEXTEND DUP2 SGT ISZERO JUMPDEST PUSH2 0x1187 JUMPI PUSH1 0x0 DUP1 REVERT JUMPDEST DUP1 SWAP2 POP POP SWAP3 SWAP2 POP POP JUMP JUMPDEST PUSH1 0x0 DUP1 REVERT JUMPDEST PUSH1 0x0 DUP2 SWAP1 POP SWAP2 SWAP1 POP JUMP JUMPDEST PUSH2 0x11A9 DUP2 PUSH2 0x1196 JUMP JUMPDEST DUP2 EQ PUSH2 0x11B4 JUMPI PUSH1 0x0 DUP1 REVERT JUMPDEST POP JUMP JUMPDEST PUSH1 0x0 DUP2 CALLDATALOAD SWAP1 POP PUSH2 0x11C6 DUP2 PUSH2 0x11A0 JUMP JUMPDEST SWAP3 SWAP2 POP POP JUMP JUMPDEST PUSH1 0x0 PUSH1 0x20 DUP3 DUP5 SUB SLT ISZERO PUSH2 0x11E2 JUMPI PUSH2 0x11E1 PUSH2 0x1191 JUMP JUMPDEST JUMPDEST PUSH1 0x0 PUSH2 0x11F0 DUP5 DUP3 DUP6 ADD PUSH2 0x11B7 JUMP JUMPDEST SWAP2 POP POP SWAP3 SWAP2 POP POP JUMP JUMPDEST PUSH2 0x1202 DUP2 PUSH2 0x1196 JUMP JUMPDEST DUP3 MSTORE POP POP JUMP JUMPDEST PUSH1 0x0 PUSH1 0x20 DUP3 ADD SWAP1 POP PUSH2 0x121D PUSH1 0x0 DUP4 ADD DUP5 PUSH2 0x11F9 JUMP JUMPDEST SWAP3 SWAP2 POP POP JUMP JUMPDEST PUSH1 0x0 PUSH20 0xFFFFFFFFFFFFFFFFFFFFFFFFFFFFFFFFFFFFFFFF DUP3 AND SWAP1 POP SWAP2 SWAP1 POP JUMP JUMPDEST PUSH1 0x0 DUP2 SWAP1 POP SWAP2 SWAP1 POP JUMP JUMPDEST PUSH1 0x0 PUSH2 0x1268 PUSH2 0x1263 PUSH2 0x125E DUP5 PUSH2 0x1223 JUMP JUMPDEST PUSH2 0x1243 JUMP JUMPDEST PUSH2 0x1223 JUMP JUMPDEST SWAP1 POP SWAP2 SWAP1 POP JUMP JUMPDEST PUSH1 0x0 PUSH2 0x127A DUP3 PUSH2 0x124D JUMP JUMPDEST SWAP1 POP SWAP2 SWAP1 POP JUMP JUMPDEST PUSH1 0x0 PUSH2 0x128C DUP3 PUSH2 0x126F JUMP JUMPDEST SWAP1 POP SWAP2 SWAP1 POP JUMP JUMPDEST PUSH2 0x129C DUP2 PUSH2 0x1281 JUMP JUMPDEST DUP3 MSTORE POP POP JUMP JUMPDEST PUSH1 0x0 PUSH1 0x20 DUP3 ADD SWAP1 POP PUSH2 0x12B7 PUSH1 0x0 DUP4 ADD DUP5 PUSH2 0x1293 JUMP JUMPDEST SWAP3 SWAP2 POP POP JUMP JUMPDEST PUSH1 0x0 DUP2 PUSH1 0x2 SIGNEXTEND SWAP1 POP SWAP2 SWAP1 POP JUMP JUMPDEST PUSH2 0x12D3 DUP2 PUSH2 0x12BD JUMP JUMPDEST DUP2 EQ PUSH2 0x12DE JUMPI PUSH1 0x0 DUP1 REVERT JUMPDEST POP JUMP JUMPDEST PUSH1 0x0 DUP2 CALLDATALOAD SWAP1 POP PUSH2 0x12F0 DUP2 PUSH2 0x12CA JUMP JUMPDEST SWAP3 SWAP2 POP POP JUMP JUMPDEST PUSH1 0x0 PUSH1 0x20 DUP3 DUP5 SUB SLT ISZERO PUSH2 0x130C JUMPI PUSH2 0x130B PUSH2 0x1191 JUMP JUMPDEST JUMPDEST PUSH1 0x0 PUSH2 0x131A DUP5 DUP3 DUP6 ADD PUSH2 0x12E1 JUMP JUMPDEST SWAP2 POP POP SWAP3 SWAP2 POP POP JUMP JUMPDEST PUSH2 0x132C DUP2 PUSH2 0x1223 JUMP JUMPDEST DUP3 MSTORE POP POP JUMP JUMPDEST PUSH1 0x0 PUSH1 0x20 DUP3 ADD SWAP1 POP PUSH2 0x1347 PUSH1 0x0 DUP4 ADD DUP5 PUSH2 0x1323 JUMP JUMPDEST SWAP3 SWAP2 POP POP JUMP JUMPDEST PUSH2 0x1356 DUP2 PUSH2 0x1223 JUMP JUMPDEST DUP2 EQ PUSH2 0x1361 JUMPI PUSH1 0x0 DUP1 REVERT JUMPDEST POP JUMP JUMPDEST PUSH1 0x0 DUP2 CALLDATALOAD SWAP1 POP PUSH2 0x1373 DUP2 PUSH2 0x134D JUMP JUMPDEST SWAP3 SWAP2 POP POP JUMP JUMPDEST PUSH1 0x0 DUP1 PUSH1 0x40 DUP4 DUP6 SUB SLT ISZERO PUSH2 0x1390 JUMPI PUSH2 0x138F PUSH2 0x1191 JUMP JUMPDEST JUMPDEST PUSH1 0x0 PUSH2 0x139E DUP6 DUP3 DUP7 ADD PUSH2 0x1364 JUMP JUMPDEST SWAP3 POP POP PUSH1 0x20 PUSH2 0x13AF DUP6 DUP3 DUP7 ADD PUSH2 0x11B7 JUMP JUMPDEST SWAP2 POP POP SWAP3 POP SWAP3 SWAP1 POP JUMP JUMPDEST PUSH2 0x13C2 DUP2 PUSH2 0x12BD JUMP JUMPDEST DUP3 MSTORE POP POP JUMP JUMPDEST PUSH1 0x0 PUSH1 0x20 DUP3 ADD SWAP1 POP PUSH2 0x13DD PUSH1 0x0 DUP4 ADD DUP5 PUSH2 0x13B9 JUMP JUMPDEST SWAP3 SWAP2 POP POP JUMP JUMPDEST PUSH1 0x0 PUSH1 0x20 DUP3 DUP5 SUB SLT ISZERO PUSH2 0x13F9 JUMPI PUSH2 0x13F8 PUSH2 0x1191 JUMP JUMPDEST JUMPDEST PUSH1 0x0 PUSH2 0x1407 DUP5 DUP3 DUP6 ADD PUSH2 0x1364 JUMP JUMPDEST SWAP2 POP POP SWAP3 SWAP2 POP POP JUMP JUMPDEST PUSH1 0x0 PUSH2 0x141B DUP3 PUSH2 0x1223 JUMP JUMPDEST SWAP1 POP SWAP2 SWAP1 POP JUMP JUMPDEST PUSH2 0x142B DUP2 PUSH2 0x1410 JUMP JUMPDEST DUP2 EQ PUSH2 0x1436 JUMPI PUSH1 0x0 DUP1 REVERT JUMPDEST POP JUMP JUMPDEST PUSH1 0x0 DUP2 CALLDATALOAD SWAP1 POP PUSH2 0x1448 DUP2 PUSH2 0x1422 JUMP JUMPDEST SWAP3 SWAP2 POP POP JUMP JUMPDEST PUSH1 0x0 DUP1 PUSH1 0x0 DUP1 PUSH1 0x80 DUP6 DUP8 SUB SLT ISZERO PUSH2 0x1468 JUMPI PUSH2 0x1467 PUSH2 0x1191 JUMP JUMPDEST JUMPDEST PUSH1 0x0 PUSH2 0x1476 DUP8 DUP3 DUP9 ADD PUSH2 0x1439 JUMP JUMPDEST SWAP5 POP POP PUSH1 0x20 PUSH2 0x1487 DUP8 DUP3 DUP9 ADD PUSH2 0x11B7 JUMP JUMPDEST SWAP4 POP POP PUSH1 0x40 PUSH2 0x1498 DUP8 DUP3 DUP9 ADD PUSH2 0x11B7 JUMP JUMPDEST SWAP3 POP POP PUSH1 0x60 PUSH2 0x14A9 DUP8 DUP3 DUP9 ADD PUSH2 0x11B7 JUMP JUMPDEST SWAP2 POP POP SWAP3 SWAP6 SWAP2 SWAP5 POP SWAP3 POP JUMP JUMPDEST PUSH32 0x4E487B7100000000000000000000000000000000000000000000000000000000 PUSH1 0x0 MSTORE PUSH1 0x12 PUSH1 0x4 MSTORE PUSH1 0x24 PUSH1 0x0 REVERT JUMPDEST PUSH32 0x4E487B7100000000000000000000000000000000000000000000000000000000 PUSH1 0x0 MSTORE PUSH1 0x11 PUSH1 0x4 MSTORE PUSH1 0x24 PUSH1 0x0 REVERT JUMPDEST PUSH1 0x0 PUSH2 0x151E DUP3 PUSH2 0x1196 JUMP JUMPDEST SWAP2 POP PUSH2 0x1529 DUP4 PUSH2 0x1196 JUMP JUMPDEST SWAP3 POP DUP3 PUSH2 0x1539 JUMPI PUSH2 0x1538 PUSH2 0x14B5 JUMP JUMPDEST JUMPDEST DUP3 DUP3 DIV SWAP1 POP SWAP3 SWAP2 POP POP JUMP JUMPDEST PUSH1 0x0 PUSH2 0x154F DUP3 PUSH2 0x1196 JUMP JUMPDEST SWAP2 POP PUSH2 0x155A DUP4 PUSH2 0x1196 JUMP JUMPDEST SWAP3 POP DUP3 DUP3 ADD SWAP1 POP DUP1 DUP3 GT ISZERO PUSH2 0x1572 JUMPI PUSH2 0x1571 PUSH2 0x14E4 JUMP JUMPDEST JUMPDEST SWAP3 SWAP2 POP POP JUMP JUMPDEST PUSH1 0x0 PUSH2 0x1583 DUP3 PUSH2 0x1196 JUMP JUMPDEST SWAP2 POP PUSH2 0x158E DUP4 PUSH2 0x1196 JUMP JUMPDEST SWAP3 POP DUP3 DUP3 MUL PUSH2 0x159C DUP2 PUSH2 0x1196 JUMP JUMPDEST SWAP2 POP DUP3 DUP3 DIV DUP5 EQ DUP4 ISZERO OR PUSH2 0x15B3 JUMPI PUSH2 0x15B2 PUSH2 0x14E4 JUMP JUMPDEST JUMPDEST POP SWAP3 SWAP2 POP POP JUMP JUMPDEST PUSH1 0x0 PUSH2 0x15C5 DUP3 PUSH2 0x1196 JUMP JUMPDEST SWAP2 POP PUSH2 0x15D0 DUP4 PUSH2 0x1196 JUMP JUMPDEST SWAP3 POP DUP3 DUP3 SUB SWAP1 POP DUP2 DUP2 GT ISZERO PUSH2 0x15E8 JUMPI PUSH2 0x15E7 PUSH2 0x14E4 JUMP JUMPDEST JUMPDEST SWAP3 SWAP2 POP POP JUMP JUMPDEST PUSH1 0x0 DUP2 MLOAD SWAP1 POP PUSH2 0x15FD DUP2 PUSH2 0x12CA JUMP JUMPDEST SWAP3 SWAP2 POP POP JUMP JUMPDEST PUSH1 0x0 PUSH1 0x20 DUP3 DUP5 SUB SLT ISZERO PUSH2 0x1619 JUMPI PUSH2 0x1618 PUSH2 0x1191 JUMP JUMPDEST JUMPDEST PUSH1 0x0 PUSH2 0x1627 DUP5 DUP3 DUP6 ADD PUSH2 0x15EE JUMP JUMPDEST SWAP2 POP POP SWAP3 SWAP2 POP POP JUMP JUMPDEST PUSH1 0x0 DUP2 MLOAD SWAP1 POP PUSH2 0x163F DUP2 PUSH2 0x134D JUMP JUMPDEST SWAP3 SWAP2 POP POP JUMP JUMPDEST PUSH1 0x0 PUSH2 0xFFFF DUP3 AND SWAP1 POP SWAP2 SWAP1 POP JUMP JUMPDEST PUSH2 0x165C DUP2 PUSH2 0x1645 JUMP JUMPDEST DUP2 EQ PUSH2 0x1667 JUMPI PUSH1 0x0 DUP1 REVERT JUMPDEST POP JUMP JUMPDEST PUSH1 0x0 DUP2 MLOAD SWAP1 POP PUSH2 0x1679 DUP2 PUSH2 0x1653 JUMP JUMPDEST SWAP3 SWAP2 POP POP JUMP JUMPDEST PUSH1 0x0 PUSH1 0xFF DUP3 AND SWAP1 POP SWAP2 SWAP1 POP JUMP JUMPDEST PUSH2 0x1695 DUP2 PUSH2 0x167F JUMP JUMPDEST DUP2 EQ PUSH2 0x16A0 JUMPI PUSH1 0x0 DUP1 REVERT JUMPDEST POP JUMP JUMPDEST PUSH1 0x0 DUP2 MLOAD SWAP1 POP PUSH2 0x16B2 DUP2 PUSH2 0x168C JUMP JUMPDEST SWAP3 SWAP2 POP POP JUMP JUMPDEST PUSH1 0x0 DUP2 ISZERO ISZERO SWAP1 POP SWAP2 SWAP1 POP JUMP JUMPDEST PUSH2 0x16CD DUP2 PUSH2 0x16B8 JUMP JUMPDEST DUP2 EQ PUSH2 0x16D8 JUMPI PUSH1 0x0 DUP1 REVERT JUMPDEST POP JUMP JUMPDEST PUSH1 0x0 DUP2 MLOAD SWAP1 POP PUSH2 0x16EA DUP2 PUSH2 0x16C4 JUMP JUMPDEST SWAP3 SWAP2 POP POP JUMP JUMPDEST PUSH1 0x0 DUP1 PUSH1 0x0 DUP1 PUSH1 0x0 DUP1 PUSH1 0x0 PUSH1 0xE0 DUP9 DUP11 SUB SLT ISZERO PUSH2 0x170F JUMPI PUSH2 0x170E PUSH2 0x1191 JUMP JUMPDEST JUMPDEST PUSH1 0x0 PUSH2 0x171D DUP11 DUP3 DUP12 ADD PUSH2 0x1630 JUMP JUMPDEST SWAP8 POP POP PUSH1 0x20 PUSH2 0x172E DUP11 DUP3 DUP12 ADD PUSH2 0x15EE JUMP JUMPDEST SWAP7 POP POP PUSH1 0x40 PUSH2 0x173F DUP11 DUP3 DUP12 ADD PUSH2 0x166A JUMP JUMPDEST SWAP6 POP POP PUSH1 0x60 PUSH2 0x1750 DUP11 DUP3 DUP12 ADD PUSH2 0x166A JUMP JUMPDEST SWAP5 POP POP PUSH1 0x80 PUSH2 0x1761 DUP11 DUP3 DUP12 ADD PUSH2 0x166A JUMP JUMPDEST SWAP4 POP POP PUSH1 0xA0 PUSH2 0x1772 DUP11 DUP3 DUP12 ADD PUSH2 0x16A3 JUMP JUMPDEST SWAP3 POP POP PUSH1 0xC0 PUSH2 0x1783 DUP11 DUP3 DUP12 ADD PUSH2 0x16DB JUMP JUMPDEST SWAP2 POP POP SWAP3 SWAP6 SWAP9 SWAP2 SWAP5 SWAP8 POP SWAP3 SWAP6 POP JUMP JUMPDEST PUSH1 0x0 DUP2 MLOAD SWAP1 POP PUSH2 0x17A1 DUP2 PUSH2 0x1422 JUMP JUMPDEST SWAP3 SWAP2 POP POP JUMP JUMPDEST PUSH1 0x0 PUSH1 0x20 DUP3 DUP5 SUB SLT ISZERO PUSH2 0x17BD JUMPI PUSH2 0x17BC PUSH2 0x1191 JUMP JUMPDEST JUMPDEST PUSH1 0x0 PUSH2 0x17CB DUP5 DUP3 DUP6 ADD PUSH2 0x1792 JUMP JUMPDEST SWAP2 POP POP SWAP3 SWAP2 POP POP JUMP JUMPDEST PUSH1 0x0 PUSH3 0xFFFFFF DUP3 AND SWAP1 POP SWAP2 SWAP1 POP JUMP JUMPDEST PUSH2 0x17EC DUP2 PUSH2 0x17D4 JUMP JUMPDEST DUP2 EQ PUSH2 0x17F7 JUMPI PUSH1 0x0 DUP1 REVERT JUMPDEST POP JUMP JUMPDEST PUSH1 0x0 DUP2 MLOAD SWAP1 POP PUSH2 0x1809 DUP2 PUSH2 0x17E3 JUMP JUMPDEST SWAP3 SWAP2 POP POP JUMP JUMPDEST PUSH1 0x0 PUSH1 0x20 DUP3 DUP5 SUB SLT ISZERO PUSH2 0x1825 JUMPI PUSH2 0x1824 PUSH2 0x1191 JUMP JUMPDEST JUMPDEST PUSH1 0x0 PUSH2 0x1833 DUP5 DUP3 DUP6 ADD PUSH2 0x17FA JUMP JUMPDEST SWAP2 POP POP SWAP3 SWAP2 POP POP JUMP JUMPDEST PUSH2 0x1845 DUP2 PUSH2 0x1410 JUMP JUMPDEST DUP3 MSTORE POP POP JUMP JUMPDEST PUSH2 0x1854 DUP2 PUSH2 0x17D4 JUMP JUMPDEST DUP3 MSTORE POP POP JUMP JUMPDEST PUSH2 0x1863 DUP2 PUSH2 0x12BD JUMP JUMPDEST DUP3 MSTORE POP POP JUMP JUMPDEST PUSH2 0x1872 DUP2 PUSH2 0x1196 JUMP JUMPDEST DUP3 MSTORE POP POP JUMP JUMPDEST PUSH2 0x160 DUP3 ADD PUSH1 0x0 DUP3 ADD MLOAD PUSH2 0x188F PUSH1 0x0 DUP6 ADD DUP3 PUSH2 0x183C JUMP JUMPDEST POP PUSH1 0x20 DUP3 ADD MLOAD PUSH2 0x18A2 PUSH1 0x20 DUP6 ADD DUP3 PUSH2 0x183C JUMP JUMPDEST POP PUSH1 0x40 DUP3 ADD MLOAD PUSH2 0x18B5 PUSH1 0x40 DUP6 ADD DUP3 PUSH2 0x184B JUMP JUMPDEST POP PUSH1 0x60 DUP3 ADD MLOAD PUSH2 0x18C8 PUSH1 0x60 DUP6 ADD DUP3 PUSH2 0x185A JUMP JUMPDEST POP PUSH1 0x80 DUP3 ADD MLOAD PUSH2 0x18DB PUSH1 0x80 DUP6 ADD DUP3 PUSH2 0x185A JUMP JUMPDEST POP PUSH1 0xA0 DUP3 ADD MLOAD PUSH2 0x18EE PUSH1 0xA0 DUP6 ADD DUP3 PUSH2 0x1869 JUMP JUMPDEST POP PUSH1 0xC0 DUP3 ADD MLOAD PUSH2 0x1901 PUSH1 0xC0 DUP6 ADD DUP3 PUSH2 0x1869 JUMP JUMPDEST POP PUSH1 0xE0 DUP3 ADD MLOAD PUSH2 0x1914 PUSH1 0xE0 DUP6 ADD DUP3 PUSH2 0x1869 JUMP JUMPDEST POP PUSH2 0x100 DUP3 ADD MLOAD PUSH2 0x1929 PUSH2 0x100 DUP6 ADD DUP3 PUSH2 0x1869 JUMP JUMPDEST POP PUSH2 0x120 DUP3 ADD MLOAD PUSH2 0x193E PUSH2 0x120 DUP6 ADD DUP3 PUSH2 0x183C JUMP JUMPDEST POP PUSH2 0x140 DUP3 ADD MLOAD PUSH2 0x1953 PUSH2 0x140 DUP6 ADD DUP3 PUSH2 0x1869 JUMP JUMPDEST POP POP POP POP JUMP JUMPDEST PUSH1 0x0 PUSH2 0x160 DUP3 ADD SWAP1 POP PUSH2 0x196F PUSH1 0x0 DUP4 ADD DUP5 PUSH2 0x1878 JUMP JUMPDEST SWAP3 SWAP2 POP POP JUMP JUMPDEST PUSH1 0x0 DUP2 MLOAD SWAP1 POP PUSH2 0x1984 DUP2 PUSH2 0x11A0 JUMP JUMPDEST SWAP3 SWAP2 POP POP JUMP JUMPDEST PUSH1 0x0 PUSH16 0xFFFFFFFFFFFFFFFFFFFFFFFFFFFFFFFF DUP3 AND SWAP1 POP SWAP2 SWAP1 POP JUMP JUMPDEST PUSH2 0x19AF DUP2 PUSH2 0x198A JUMP JUMPDEST DUP2 EQ PUSH2 0x19BA JUMPI PUSH1 0x0 DUP1 REVERT JUMPDEST POP JUMP JUMPDEST PUSH1 0x0 DUP2 MLOAD SWAP1 POP PUSH2 0x19CC DUP2 PUSH2 0x19A6 JUMP JUMPDEST SWAP3 SWAP2 POP POP JUMP JUMPDEST PUSH1 0x0 DUP1 PUSH1 0x0 DUP1 PUSH1 0x80 DUP6 DUP8 SUB SLT ISZERO PUSH2 0x19EC JUMPI PUSH2 0x19EB PUSH2 0x1191 JUMP JUMPDEST JUMPDEST PUSH1 0x0 PUSH2 0x19FA DUP8 DUP3 DUP9 ADD PUSH2 0x1975 JUMP JUMPDEST SWAP5 POP POP PUSH1 0x20 PUSH2 0x1A0B DUP8 DUP3 DUP9 ADD PUSH2 0x19BD JUMP JUMPDEST SWAP4 POP POP PUSH1 0x40 PUSH2 0x1A1C DUP8 DUP3 DUP9 ADD PUSH2 0x1975 JUMP JUMPDEST SWAP3 POP POP PUSH1 0x60 PUSH2 0x1A2D DUP8 DUP3 DUP9 ADD PUSH2 0x1975 JUMP JUMPDEST SWAP2 POP POP SWAP3 SWAP6 SWAP2 SWAP5 POP SWAP3 POP JUMP JUMPDEST PUSH1 0x0 DUP2 SWAP1 POP SWAP2 SWAP1 POP JUMP JUMPDEST PUSH1 0x0 PUSH2 0x1A4E DUP3 PUSH2 0x1A39 JUMP JUMPDEST SWAP2 POP PUSH32 0x8000000000000000000000000000000000000000000000000000000000000000 DUP3 SUB PUSH2 0x1A80 JUMPI PUSH2 0x1A7F PUSH2 0x14E4 JUMP JUMPDEST JUMPDEST DUP2 PUSH1 0x0 SUB SWAP1 POP SWAP2 SWAP1 POP JUMP JUMPDEST PUSH1 0x0 PUSH2 0x1A96 DUP3 PUSH2 0x12BD JUMP JUMPDEST SWAP2 POP PUSH32 0xFFFFFFFFFFFFFFFFFFFFFFFFFFFFFFFFFFFFFFFFFFFFFFFFFFFFFFFFFF800000 DUP3 SUB PUSH2 0x1AC8 JUMPI PUSH2 0x1AC7 PUSH2 0x14E4 JUMP JUMPDEST JUMPDEST DUP2 PUSH1 0x0 SUB SWAP1 POP SWAP2 SWAP1 POP JUMP JUMPDEST PUSH1 0x0 DUP3 DUP3 MSTORE PUSH1 0x20 DUP3 ADD SWAP1 POP SWAP3 SWAP2 POP POP JUMP JUMPDEST PUSH32 0x5400000000000000000000000000000000000000000000000000000000000000 PUSH1 0x0 DUP3 ADD MSTORE POP JUMP JUMPDEST PUSH1 0x0 PUSH2 0x1B1A PUSH1 0x1 DUP4 PUSH2 0x1AD3 JUMP JUMPDEST SWAP2 POP PUSH2 0x1B25 DUP3 PUSH2 0x1AE4 JUMP JUMPDEST PUSH1 0x20 DUP3 ADD SWAP1 POP SWAP2 SWAP1 POP JUMP JUMPDEST PUSH1 0x0 PUSH1 0x20 DUP3 ADD SWAP1 POP DUP2 DUP2 SUB PUSH1 0x0 DUP4 ADD MSTORE PUSH2 0x1B49 DUP2 PUSH2 0x1B0D JUMP JUMPDEST SWAP1 POP SWAP2 SWAP1 POP JUMP JUMPDEST PUSH1 0x0 PUSH2 0x1B5B DUP3 PUSH2 0x1196 JUMP JUMPDEST SWAP2 POP PUSH2 0x1B66 DUP4 PUSH2 0x1196 JUMP JUMPDEST SWAP3 POP DUP3 PUSH2 0x1B76 JUMPI PUSH2 0x1B75 PUSH2 0x14B5 JUMP JUMPDEST JUMPDEST DUP3 DUP3 MOD SWAP1 POP SWAP3 SWAP2 POP POP JUMP JUMPDEST PUSH32 0x5200000000000000000000000000000000000000000000000000000000000000 PUSH1 0x0 DUP3 ADD MSTORE POP JUMP JUMPDEST PUSH1 0x0 PUSH2 0x1BB7 PUSH1 0x1 DUP4 PUSH2 0x1AD3 JUMP JUMPDEST SWAP2 POP PUSH2 0x1BC2 DUP3 PUSH2 0x1B81 JUMP JUMPDEST PUSH1 0x20 DUP3 ADD SWAP1 POP SWAP2 SWAP1 POP JUMP JUMPDEST PUSH1 0x0 PUSH1 0x20 DUP3 ADD SWAP1 POP DUP2 DUP2 SUB PUSH1 0x0 DUP4 ADD MSTORE PUSH2 0x1BE6 DUP2 PUSH2 0x1BAA JUMP JUMPDEST SWAP1 POP SWAP2 SWAP1 POP JUMP JUMPDEST PUSH1 0x0 PUSH2 0x1BF8 DUP3 PUSH2 0x1A39 JUMP JUMPDEST SWAP2 POP PUSH2 0x1C03 DUP4 PUSH2 0x1A39 JUMP JUMPDEST SWAP3 POP DUP3 DUP3 SUB SWAP1 POP DUP2 DUP2 SLT PUSH1 0x0 DUP5 SLT AND DUP3 DUP3 SGT PUSH1 0x0 DUP6 SLT ISZERO AND OR ISZERO PUSH2 0x1C2A JUMPI PUSH2 0x1C29 PUSH2 0x14E4 JUMP JUMPDEST JUMPDEST SWAP3 SWAP2 POP POP JUMP JUMPDEST PUSH1 0x0 PUSH2 0x1C3B DUP3 PUSH2 0x1A39 JUMP JUMPDEST SWAP2 POP PUSH2 0x1C46 DUP4 PUSH2 0x1A39 JUMP JUMPDEST SWAP3 POP DUP3 DUP3 MUL PUSH2 0x1C54 DUP2 PUSH2 0x1A39 JUMP JUMPDEST SWAP2 POP PUSH32 0x8000000000000000000000000000000000000000000000000000000000000000 DUP5 EQ PUSH1 0x0 DUP5 SLT AND ISZERO PUSH2 0x1C8C JUMPI PUSH2 0x1C8B PUSH2 0x14E4 JUMP JUMPDEST JUMPDEST DUP3 DUP3 SDIV DUP5 EQ DUP4 ISZERO OR PUSH2 0x1CA1 JUMPI PUSH2 0x1CA0 PUSH2 0x14E4 JUMP JUMPDEST JUMPDEST POP SWAP3 SWAP2 POP POP JUMP JUMPDEST PUSH1 0x0 PUSH2 0x1CB3 DUP3 PUSH2 0x1A39 JUMP JUMPDEST SWAP2 POP PUSH2 0x1CBE DUP4 PUSH2 0x1A39 JUMP JUMPDEST SWAP3 POP DUP3 DUP3 ADD SWAP1 POP DUP3 DUP2 SLT ISZERO PUSH1 0x0 DUP4 SLT AND DUP4 DUP3 SLT PUSH1 0x0 DUP5 SLT ISZERO AND OR ISZERO PUSH2 0x1CE6 JUMPI PUSH2 0x1CE5 PUSH2 0x14E4 JUMP JUMPDEST JUMPDEST SWAP3 SWAP2 POP POP JUMP JUMPDEST PUSH1 0x0 PUSH2 0x1CF7 DUP3 PUSH2 0x12BD JUMP JUMPDEST SWAP2 POP PUSH2 0x1D02 DUP4 PUSH2 0x12BD JUMP JUMPDEST SWAP3 POP DUP3 DUP3 MUL PUSH2 0x1D10 DUP2 PUSH2 0x12BD JUMP JUMPDEST SWAP2 POP DUP1 DUP3 EQ PUSH2 0x1D22 JUMPI PUSH2 0x1D21 PUSH2 0x14E4 JUMP JUMPDEST JUMPDEST POP SWAP3 SWAP2 POP POP JUMP JUMPDEST PUSH1 0x0 PUSH2 0x1D34 DUP3 PUSH2 0x12BD JUMP JUMPDEST SWAP2 POP PUSH2 0x1D3F DUP4 PUSH2 0x12BD JUMP JUMPDEST SWAP3 POP DUP3 DUP3 ADD SWAP1 POP PUSH32 0xFFFFFFFFFFFFFFFFFFFFFFFFFFFFFFFFFFFFFFFFFFFFFFFFFFFFFFFFFF800000 DUP2 SLT PUSH3 0x7FFFFF DUP3 SGT OR ISZERO PUSH2 0x1D7E JUMPI PUSH2 0x1D7D PUSH2 0x14E4 JUMP JUMPDEST JUMPDEST SWAP3 SWAP2 POP POP JUMP JUMPDEST PUSH1 0x0 PUSH2 0x1D8F DUP3 PUSH2 0x12BD JUMP JUMPDEST SWAP2 POP PUSH2 0x1D9A DUP4 PUSH2 0x12BD JUMP JUMPDEST SWAP3 POP DUP3 DUP3 SUB SWAP1 POP PUSH3 0x7FFFFF DUP2 SGT PUSH32 0xFFFFFFFFFFFFFFFFFFFFFFFFFFFFFFFFFFFFFFFFFFFFFFFFFFFFFFFFFF800000 DUP3 SLT OR ISZERO PUSH2 0x1DD9 JUMPI PUSH2 0x1DD8 PUSH2 0x14E4 JUMP JUMPDEST JUMPDEST SWAP3 SWAP2 POP POP JUMP JUMPDEST PUSH1 0x0 DUP2 PUSH1 0xF SIGNEXTEND SWAP1 POP SWAP2 SWAP1 POP JUMP JUMPDEST PUSH1 0x0 PUSH2 0x1DF7 DUP3 PUSH2 0x1DDF JUMP JUMPDEST SWAP2 POP PUSH2 0x1E02 DUP4 PUSH2 0x1DDF JUMP JUMPDEST SWAP3 POP DUP3 PUSH2 0x1E12 JUMPI PUSH2 0x1E11 PUSH2 0x14B5 JUMP JUMPDEST JUMPDEST DUP3 DUP3 SMOD SWAP1 POP SWAP3 SWAP2 POP POP JUMP JUMPDEST PUSH1 0x0 PUSH2 0x1E28 DUP3 PUSH2 0x1DDF JUMP JUMPDEST SWAP2 POP PUSH2 0x1E33 DUP4 PUSH2 0x1DDF JUMP JUMPDEST SWAP3 POP DUP3 DUP3 ADD SWAP1 POP PUSH32 0xFFFFFFFFFFFFFFFFFFFFFFFFFFFFFFFF80000000000000000000000000000000 DUP2 SLT PUSH16 0x7FFFFFFFFFFFFFFFFFFFFFFFFFFFFFFF DUP3 SGT OR ISZERO PUSH2 0x1E7F JUMPI PUSH2 0x1E7E PUSH2 0x14E4 JUMP JUMPDEST JUMPDEST SWAP3 SWAP2 POP POP JUMP INVALID LOG2 PUSH5 0x6970667358 0x22 SLT KECCAK256 OR 0xC7 0xD7 0xBC INVALID PREVRANDAO PUSH21 0x528F13AD5D0D857571675A4190153E718A2654B99C 0xEA 0xCC 0xA6 BASEFEE PUSH5 0x736F6C6343 STOP ADDMOD XOR STOP CALLER "},"methodIdentifiers":{"createPosition(address,uint256,uint256,uint256)":"f8c4ee6d","getLowerTick(uint160,uint256)":"c43d0c13","getPrice(uint160)":"d9c7c1a9","getSqrtPrice(int24)":"7dfabf76","getUpperTick(uint160,uint256)":"a2e0998d","positionManager()":"791b98bc","sqrt(uint256)":"677342ce"}}}}}