{"contracts/AddLiquidity.sol":{"AddLiquidity":{"abi":[{"inputs":[{"internalType":"address","name":"_positionManager","type":"address"}],"stateMutability":"nonpayable","type":"constructor"},{"inputs":[{"internalType":"uint160","name":"sqrtPriceX96","type":"uint160"}],"name":"calculateLowerPrice","outputs":[{"internalType":"uint256","name":"","type":"uint256"}],"stateMutability":"pure","type":"function"},{"inputs":[{"internalType":"uint256","name":"lowerPrice","type":"uint256"},{"internalType":"uint256","name":"width","type":"uint256"}],"name":"calculateUpperPrice","outputs":[{"internalType":"uint256","name":"","type":"uint256"}],"stateMutability":"pure","type":"function"},{"inputs":[{"internalType":"address","name":"pool","type":"address"},{"internalType":"uint256","name":"amount0","type":"uint256"},{"internalType":"uint256","name":"amount1","type":"uint256"},{"internalType":"uint256","name":"width","type":"uint256"}],"name":"createPosition","outputs":[],"stateMutability":"nonpayable","type":"function"},{"inputs":[],"name":"positionManager","outputs":[{"internalType":"contract INonfungiblePositionManager","name":"","type":"address"}],"stateMutability":"view","type":"function"}],"evm":{"bytecode":{"linkReferences":{},"object":"60806040523480156200001157600080fd5b50604051620016e5380380620016e58339818101604052810190620000379190620000e8565b806000806101000a81548173ffffffffffffffffffffffffffffffffffffffff021916908373ffffffffffffffffffffffffffffffffffffffff160217905550506200011a565b600080fd5b600073ffffffffffffffffffffffffffffffffffffffff82169050919050565b6000620000b08262000083565b9050919050565b620000c281620000a3565b8114620000ce57600080fd5b50565b600081519050620000e281620000b7565b92915050565b6000602082840312156200010157620001006200007e565b5b60006200011184828501620000d1565b91505092915050565b6115bb806200012a6000396000f3fe608060405234801561001057600080fd5b506004361061004c5760003560e01c80633758b3611461005157806365e041b214610081578063791b98bc146100b1578063f8c4ee6d146100cf575b600080fd5b61006b60048036038101906100669190610d52565b6100eb565b6040516100789190610da1565b60405180910390f35b61009b60048036038101906100969190610e08565b610124565b6040516100a89190610da1565b60405180910390f35b6100b9610189565b6040516100c69190610e94565b60405180910390f35b6100e960048036038101906100e49190610eed565b6101ad565b005b6000816127106100fb9190610f83565b82846101079190610fb7565b6101119190611028565b8361011c9190611059565b905092915050565b600078010000000000000000000000000000000000000000000000008273ffffffffffffffffffffffffffffffffffffffff168373ffffffffffffffffffffffffffffffffffffffff166101789190610fb7565b6101829190611028565b9050919050565b60008054906101000a900473ffffffffffffffffffffffffffffffffffffffff1681565b60008490506000808273ffffffffffffffffffffffffffffffffffffffff16633850c7bd6040518163ffffffff1660e01b815260040160e060405180830381865afa158015610200573d6000803e3d6000fd5b505050506040513d601f19601f820116820180604052508101906102249190611186565b505050505091509150600061023883610124565b9050600061024682876100eb565b905060006040518061016001604052808773ffffffffffffffffffffffffffffffffffffffff16630dfe16816040518163ffffffff1660e01b8152600401602060405180830381865afa1580156102a1573d6000803e3d6000fd5b505050506040513d601f19601f820116820180604052508101906102c5919061123d565b73ffffffffffffffffffffffffffffffffffffffff1681526020018773ffffffffffffffffffffffffffffffffffffffff1663d21220a76040518163ffffffff1660e01b8152600401602060405180830381865afa15801561032b573d6000803e3d6000fd5b505050506040513d601f19601f8201168201806040525081019061034f919061123d565b73ffffffffffffffffffffffffffffffffffffffff1681526020018773ffffffffffffffffffffffffffffffffffffffff1663ddca3f436040518163ffffffff1660e01b8152600401602060405180830381865afa1580156103b5573d6000803e3d6000fd5b505050506040513d601f19601f820116820180604052508101906103d991906112a5565b62ffffff1681526020016103ec8561044d565b60020b81526020016103fd8461044d565b60020b81526020018a815260200189815260200160008152602001600081526020013373ffffffffffffffffffffffffffffffffffffffff16815260200142815250905050505050505050505050565b60006401000276a373ffffffffffffffffffffffffffffffffffffffff168273ffffffffffffffffffffffffffffffffffffffff16101580156104cf575073fffd8963efd1fc6a506488495d951d5263988d2673ffffffffffffffffffffffffffffffffffffffff168273ffffffffffffffffffffffffffffffffffffffff16105b61050e576040517f08c379a00000000000000000000000000000000000000000000000000000000081526004016105059061132f565b60405180910390fd5b600060208373ffffffffffffffffffffffffffffffffffffffff16901b9050600081905060006fffffffffffffffffffffffffffffffff821160071b808217915082811c92505067ffffffffffffffff821160061b808217915082811c92505063ffffffff821160051b808217915082811c92505061ffff821160041b808217915082811c92505060ff821160031b808217915082811c925050600f821160021b808217915082811c9250506003821160011b808217915082811c92505060018211808217915050608081106105f557607f816105eb9190610f83565b83901c9150610608565b80607f6106029190610f83565b83901b91505b600060406080836106199190611359565b901b9050828302607f1c92508260801c80603f1b8217915083811c935050828302607f1c92508260801c80603e1b8217915083811c935050828302607f1c92508260801c80603d1b8217915083811c935050828302607f1c92508260801c80603c1b8217915083811c935050828302607f1c92508260801c80603b1b8217915083811c935050828302607f1c92508260801c80603a1b8217915083811c935050828302607f1c92508260801c8060391b8217915083811c935050828302607f1c92508260801c8060381b8217915083811c935050828302607f1c92508260801c8060371b8217915083811c935050828302607f1c92508260801c8060361b8217915083811c935050828302607f1c92508260801c8060351b8217915083811c935050828302607f1c92508260801c8060341b8217915083811c935050828302607f1c92508260801c8060331b8217915083811c935050828302607f1c92508260801c8060321b82179150506000693627a301d71055774c858261079c919061139c565b9050600060806f028f6481ab7f045a5af012a19d003aaa836107be9190611359565b901d9050600060806fdb2df09e81959a81455e260799a0632f846107e29190611414565b901d90508060020b8260020b1461083c578873ffffffffffffffffffffffffffffffffffffffff166108138261084c565b73ffffffffffffffffffffffffffffffffffffffff1611156108355781610837565b805b61083e565b815b975050505050505050919050565b60008060008360020b12610863578260020b610871565b8260020b61087090611458565b5b90507ffffffffffffffffffffffffffffffffffffffffffffffffffffffffffff2761861089d906114a0565b60020b8111156108e2576040517f08c379a00000000000000000000000000000000000000000000000000000000081526004016108d990611534565b60405180910390fd5b600080600183160361090557700100000000000000000000000000000000610917565b6ffffcb933bd6fad37aa2d162d1a5940015b70ffffffffffffffffffffffffffffffffff1690506000600283161461095a5760806ffff97272373d413259a46990580e213a826109559190610fb7565b901c90505b600060048316146109885760806ffff2e50f5f656932ef12357cf3c7fdcc826109839190610fb7565b901c90505b600060088316146109b65760806fffe5caca7e10e4e61c3624eaa0941cd0826109b19190610fb7565b901c90505b600060108316146109e45760806fffcb9843d60f6159c9db58835c926644826109df9190610fb7565b901c90505b60006020831614610a125760806fff973b41fa98c081472e6896dfb254c082610a0d9190610fb7565b901c90505b60006040831614610a405760806fff2ea16466c96a3843ec78b326b5286182610a3b9190610fb7565b901c90505b60006080831614610a6e5760806ffe5dee046a99a2a811c461f1969c305382610a699190610fb7565b901c90505b6000610100831614610a9d5760806ffcbe86c7900a88aedcffc83b479aa3a482610a989190610fb7565b901c90505b6000610200831614610acc5760806ff987a7253ac413176f2b074cf7815e5482610ac79190610fb7565b901c90505b6000610400831614610afb5760806ff3392b0822b70005940c7a398e4b70f382610af69190610fb7565b901c90505b6000610800831614610b2a5760806fe7159475a2c29b7443b29c7fa6e889d982610b259190610fb7565b901c90505b6000611000831614610b595760806fd097f3bdfd2022b8845ad8f792aa582582610b549190610fb7565b901c90505b6000612000831614610b885760806fa9f746462d870fdf8a65dc1f90e061e582610b839190610fb7565b901c90505b6000614000831614610bb75760806f70d869a156d2a1b890bb3df62baf32f782610bb29190610fb7565b901c90505b6000618000831614610be65760806f31be135f97d08fd981231505542fcfa682610be19190610fb7565b901c90505b600062010000831614610c165760806f09aa508b5b7a84e1c677de54f3e99bc982610c119190610fb7565b901c90505b600062020000831614610c455760806e5d6af8dedb81196699c329225ee60482610c409190610fb7565b901c90505b600062040000831614610c735760806d2216e584f5fa1ea926041bedfe9882610c6e9190610fb7565b901c90505b600062080000831614610c9f5760806b048a170391f7dc42444e8fa282610c9a9190610fb7565b901c90505b60008460020b1315610cda57807fffffffffffffffffffffffffffffffffffffffffffffffffffffffffffffffff610cd79190611028565b90505b600064010000000082610ced9190611554565b14610cf9576001610cfc565b60005b60ff16602082901c610d0e9190611059565b92505050919050565b600080fd5b6000819050919050565b610d2f81610d1c565b8114610d3a57600080fd5b50565b600081359050610d4c81610d26565b92915050565b60008060408385031215610d6957610d68610d17565b5b6000610d7785828601610d3d565b9250506020610d8885828601610d3d565b9150509250929050565b610d9b81610d1c565b82525050565b6000602082019050610db66000830184610d92565b92915050565b600073ffffffffffffffffffffffffffffffffffffffff82169050919050565b610de581610dbc565b8114610df057600080fd5b50565b600081359050610e0281610ddc565b92915050565b600060208284031215610e1e57610e1d610d17565b5b6000610e2c84828501610df3565b91505092915050565b6000819050919050565b6000610e5a610e55610e5084610dbc565b610e35565b610dbc565b9050919050565b6000610e6c82610e3f565b9050919050565b6000610e7e82610e61565b9050919050565b610e8e81610e73565b82525050565b6000602082019050610ea96000830184610e85565b92915050565b6000610eba82610dbc565b9050919050565b610eca81610eaf565b8114610ed557600080fd5b50565b600081359050610ee781610ec1565b92915050565b60008060008060808587031215610f0757610f06610d17565b5b6000610f1587828801610ed8565b9450506020610f2687828801610d3d565b9350506040610f3787828801610d3d565b9250506060610f4887828801610d3d565b91505092959194509250565b7f4e487b7100000000000000000000000000000000000000000000000000000000600052601160045260246000fd5b6000610f8e82610d1c565b9150610f9983610d1c565b9250828203905081811115610fb157610fb0610f54565b5b92915050565b6000610fc282610d1c565b9150610fcd83610d1c565b9250828202610fdb81610d1c565b91508282048414831517610ff257610ff1610f54565b5b5092915050565b7f4e487b7100000000000000000000000000000000000000000000000000000000600052601260045260246000fd5b600061103382610d1c565b915061103e83610d1c565b92508261104e5761104d610ff9565b5b828204905092915050565b600061106482610d1c565b915061106f83610d1c565b925082820190508082111561108757611086610f54565b5b92915050565b60008151905061109c81610ddc565b92915050565b60008160020b9050919050565b6110b8816110a2565b81146110c357600080fd5b50565b6000815190506110d5816110af565b92915050565b600061ffff82169050919050565b6110f2816110db565b81146110fd57600080fd5b50565b60008151905061110f816110e9565b92915050565b600060ff82169050919050565b61112b81611115565b811461113657600080fd5b50565b60008151905061114881611122565b92915050565b60008115159050919050565b6111638161114e565b811461116e57600080fd5b50565b6000815190506111808161115a565b92915050565b600080600080600080600060e0888a0312156111a5576111a4610d17565b5b60006111b38a828b0161108d565b97505060206111c48a828b016110c6565b96505060406111d58a828b01611100565b95505060606111e68a828b01611100565b94505060806111f78a828b01611100565b93505060a06112088a828b01611139565b92505060c06112198a828b01611171565b91505092959891949750929550565b60008151905061123781610ec1565b92915050565b60006020828403121561125357611252610d17565b5b600061126184828501611228565b91505092915050565b600062ffffff82169050919050565b6112828161126a565b811461128d57600080fd5b50565b60008151905061129f81611279565b92915050565b6000602082840312156112bb576112ba610d17565b5b60006112c984828501611290565b91505092915050565b600082825260208201905092915050565b7f5200000000000000000000000000000000000000000000000000000000000000600082015250565b60006113196001836112d2565b9150611324826112e3565b602082019050919050565b600060208201905081810360008301526113488161130c565b9050919050565b6000819050919050565b60006113648261134f565b915061136f8361134f565b925082820390508181126000841216828213600085121516171561139657611395610f54565b5b92915050565b60006113a78261134f565b91506113b28361134f565b92508282026113c08161134f565b91507f800000000000000000000000000000000000000000000000000000000000000084146000841216156113f8576113f7610f54565b5b828205841483151761140d5761140c610f54565b5b5092915050565b600061141f8261134f565b915061142a8361134f565b92508282019050828112156000831216838212600084121516171561145257611451610f54565b5b92915050565b60006114638261134f565b91507f8000000000000000000000000000000000000000000000000000000000000000820361149557611494610f54565b5b816000039050919050565b60006114ab826110a2565b91507fffffffffffffffffffffffffffffffffffffffffffffffffffffffffff80000082036114dd576114dc610f54565b5b816000039050919050565b7f5400000000000000000000000000000000000000000000000000000000000000600082015250565b600061151e6001836112d2565b9150611529826114e8565b602082019050919050565b6000602082019050818103600083015261154d81611511565b9050919050565b600061155f82610d1c565b915061156a83610d1c565b92508261157a57611579610ff9565b5b82820690509291505056fea2646970667358221220ab50922c1653d9cf25380564a16b92a041967f217295c3811f6532df348ca19264736f6c63430008180033","opcodes":"PUSH1 0x80 PUSH1 0x40 MSTORE CALLVALUE DUP1 ISZERO PUSH3 0x11 JUMPI PUSH1 0x0 DUP1 REVERT JUMPDEST POP PUSH1 0x40 MLOAD PUSH3 0x16E5 CODESIZE SUB DUP1 PUSH3 0x16E5 DUP4 CODECOPY DUP2 DUP2 ADD PUSH1 0x40 MSTORE DUP2 ADD SWAP1 PUSH3 0x37 SWAP2 SWAP1 PUSH3 0xE8 JUMP JUMPDEST DUP1 PUSH1 0x0 DUP1 PUSH2 0x100 EXP DUP2 SLOAD DUP2 PUSH20 0xFFFFFFFFFFFFFFFFFFFFFFFFFFFFFFFFFFFFFFFF MUL NOT AND SWAP1 DUP4 PUSH20 0xFFFFFFFFFFFFFFFFFFFFFFFFFFFFFFFFFFFFFFFF AND MUL OR SWAP1 SSTORE POP POP PUSH3 0x11A JUMP JUMPDEST PUSH1 0x0 DUP1 REVERT JUMPDEST PUSH1 0x0 PUSH20 0xFFFFFFFFFFFFFFFFFFFFFFFFFFFFFFFFFFFFFFFF DUP3 AND SWAP1 POP SWAP2 SWAP1 POP JUMP JUMPDEST PUSH1 0x0 PUSH3 0xB0 DUP3 PUSH3 0x83 JUMP JUMPDEST SWAP1 POP SWAP2 SWAP1 POP JUMP JUMPDEST PUSH3 0xC2 DUP2 PUSH3 0xA3 JUMP JUMPDEST DUP2 EQ PUSH3 0xCE JUMPI PUSH1 0x0 DUP1 REVERT JUMPDEST POP JUMP JUMPDEST PUSH1 0x0 DUP2 MLOAD SWAP1 POP PUSH3 0xE2 DUP2 PUSH3 0xB7 JUMP JUMPDEST SWAP3 SWAP2 POP POP JUMP JUMPDEST PUSH1 0x0 PUSH1 0x20 DUP3 DUP5 SUB SLT ISZERO PUSH3 0x101 JUMPI PUSH3 0x100 PUSH3 0x7E JUMP JUMPDEST JUMPDEST PUSH1 0x0 PUSH3 0x111 DUP5 DUP3 DUP6 ADD PUSH3 0xD1 JUMP JUMPDEST SWAP2 POP POP SWAP3 SWAP2 POP POP JUMP JUMPDEST PUSH2 0x15BB DUP1 PUSH3 0x12A PUSH1 0x0 CODECOPY PUSH1 0x0 RETURN INVALID PUSH1 0x80 PUSH1 0x40 MSTORE CALLVALUE DUP1 ISZERO PUSH2 0x10 JUMPI PUSH1 0x0 DUP1 REVERT JUMPDEST POP PUSH1 0x4 CALLDATASIZE LT PUSH2 0x4C JUMPI PUSH1 0x0 CALLDATALOAD PUSH1 0xE0 SHR DUP1 PUSH4 0x3758B361 EQ PUSH2 0x51 JUMPI DUP1 PUSH4 0x65E041B2 EQ PUSH2 0x81 JUMPI DUP1 PUSH4 0x791B98BC EQ PUSH2 0xB1 JUMPI DUP1 PUSH4 0xF8C4EE6D EQ PUSH2 0xCF JUMPI JUMPDEST PUSH1 0x0 DUP1 REVERT JUMPDEST PUSH2 0x6B PUSH1 0x4 DUP1 CALLDATASIZE SUB DUP2 ADD SWAP1 PUSH2 0x66 SWAP2 SWAP1 PUSH2 0xD52 JUMP JUMPDEST PUSH2 0xEB JUMP JUMPDEST PUSH1 0x40 MLOAD PUSH2 0x78 SWAP2 SWAP1 PUSH2 0xDA1 JUMP JUMPDEST PUSH1 0x40 MLOAD DUP1 SWAP2 SUB SWAP1 RETURN JUMPDEST PUSH2 0x9B PUSH1 0x4 DUP1 CALLDATASIZE SUB DUP2 ADD SWAP1 PUSH2 0x96 SWAP2 SWAP1 PUSH2 0xE08 JUMP JUMPDEST PUSH2 0x124 JUMP JUMPDEST PUSH1 0x40 MLOAD PUSH2 0xA8 SWAP2 SWAP1 PUSH2 0xDA1 JUMP JUMPDEST PUSH1 0x40 MLOAD DUP1 SWAP2 SUB SWAP1 RETURN JUMPDEST PUSH2 0xB9 PUSH2 0x189 JUMP JUMPDEST PUSH1 0x40 MLOAD PUSH2 0xC6 SWAP2 SWAP1 PUSH2 0xE94 JUMP JUMPDEST PUSH1 0x40 MLOAD DUP1 SWAP2 SUB SWAP1 RETURN JUMPDEST PUSH2 0xE9 PUSH1 0x4 DUP1 CALLDATASIZE SUB DUP2 ADD SWAP1 PUSH2 0xE4 SWAP2 SWAP1 PUSH2 0xEED JUMP JUMPDEST PUSH2 0x1AD JUMP JUMPDEST STOP JUMPDEST PUSH1 0x0 DUP2 PUSH2 0x2710 PUSH2 0xFB SWAP2 SWAP1 PUSH2 0xF83 JUMP JUMPDEST DUP3 DUP5 PUSH2 0x107 SWAP2 SWAP1 PUSH2 0xFB7 JUMP JUMPDEST PUSH2 0x111 SWAP2 SWAP1 PUSH2 0x1028 JUMP JUMPDEST DUP4 PUSH2 0x11C SWAP2 SWAP1 PUSH2 0x1059 JUMP JUMPDEST SWAP1 POP SWAP3 SWAP2 POP POP JUMP JUMPDEST PUSH1 0x0 PUSH25 0x1000000000000000000000000000000000000000000000000 DUP3 PUSH20 0xFFFFFFFFFFFFFFFFFFFFFFFFFFFFFFFFFFFFFFFF AND DUP4 PUSH20 0xFFFFFFFFFFFFFFFFFFFFFFFFFFFFFFFFFFFFFFFF AND PUSH2 0x178 SWAP2 SWAP1 PUSH2 0xFB7 JUMP JUMPDEST PUSH2 0x182 SWAP2 SWAP1 PUSH2 0x1028 JUMP JUMPDEST SWAP1 POP SWAP2 SWAP1 POP JUMP JUMPDEST PUSH1 0x0 DUP1 SLOAD SWAP1 PUSH2 0x100 EXP SWAP1 DIV PUSH20 0xFFFFFFFFFFFFFFFFFFFFFFFFFFFFFFFFFFFFFFFF AND DUP2 JUMP JUMPDEST PUSH1 0x0 DUP5 SWAP1 POP PUSH1 0x0 DUP1 DUP3 PUSH20 0xFFFFFFFFFFFFFFFFFFFFFFFFFFFFFFFFFFFFFFFF AND PUSH4 0x3850C7BD PUSH1 0x40 MLOAD DUP2 PUSH4 0xFFFFFFFF AND PUSH1 0xE0 SHL DUP2 MSTORE PUSH1 0x4 ADD PUSH1 0xE0 PUSH1 0x40 MLOAD DUP1 DUP4 SUB DUP2 DUP7 GAS STATICCALL ISZERO DUP1 ISZERO PUSH2 0x200 JUMPI RETURNDATASIZE PUSH1 0x0 DUP1 RETURNDATACOPY RETURNDATASIZE PUSH1 0x0 REVERT JUMPDEST POP POP POP POP PUSH1 0x40 MLOAD RETURNDATASIZE PUSH1 0x1F NOT PUSH1 0x1F DUP3 ADD AND DUP3 ADD DUP1 PUSH1 0x40 MSTORE POP DUP2 ADD SWAP1 PUSH2 0x224 SWAP2 SWAP1 PUSH2 0x1186 JUMP JUMPDEST POP POP POP POP POP SWAP2 POP SWAP2 POP PUSH1 0x0 PUSH2 0x238 DUP4 PUSH2 0x124 JUMP JUMPDEST SWAP1 POP PUSH1 0x0 PUSH2 0x246 DUP3 DUP8 PUSH2 0xEB JUMP JUMPDEST SWAP1 POP PUSH1 0x0 PUSH1 0x40 MLOAD DUP1 PUSH2 0x160 ADD PUSH1 0x40 MSTORE DUP1 DUP8 PUSH20 0xFFFFFFFFFFFFFFFFFFFFFFFFFFFFFFFFFFFFFFFF AND PUSH4 0xDFE1681 PUSH1 0x40 MLOAD DUP2 PUSH4 0xFFFFFFFF AND PUSH1 0xE0 SHL DUP2 MSTORE PUSH1 0x4 ADD PUSH1 0x20 PUSH1 0x40 MLOAD DUP1 DUP4 SUB DUP2 DUP7 GAS STATICCALL ISZERO DUP1 ISZERO PUSH2 0x2A1 JUMPI RETURNDATASIZE PUSH1 0x0 DUP1 RETURNDATACOPY RETURNDATASIZE PUSH1 0x0 REVERT JUMPDEST POP POP POP POP PUSH1 0x40 MLOAD RETURNDATASIZE PUSH1 0x1F NOT PUSH1 0x1F DUP3 ADD AND DUP3 ADD DUP1 PUSH1 0x40 MSTORE POP DUP2 ADD SWAP1 PUSH2 0x2C5 SWAP2 SWAP1 PUSH2 0x123D JUMP JUMPDEST PUSH20 0xFFFFFFFFFFFFFFFFFFFFFFFFFFFFFFFFFFFFFFFF AND DUP2 MSTORE PUSH1 0x20 ADD DUP8 PUSH20 0xFFFFFFFFFFFFFFFFFFFFFFFFFFFFFFFFFFFFFFFF AND PUSH4 0xD21220A7 PUSH1 0x40 MLOAD DUP2 PUSH4 0xFFFFFFFF AND PUSH1 0xE0 SHL DUP2 MSTORE PUSH1 0x4 ADD PUSH1 0x20 PUSH1 0x40 MLOAD DUP1 DUP4 SUB DUP2 DUP7 GAS STATICCALL ISZERO DUP1 ISZERO PUSH2 0x32B JUMPI RETURNDATASIZE PUSH1 0x0 DUP1 RETURNDATACOPY RETURNDATASIZE PUSH1 0x0 REVERT JUMPDEST POP POP POP POP PUSH1 0x40 MLOAD RETURNDATASIZE PUSH1 0x1F NOT PUSH1 0x1F DUP3 ADD AND DUP3 ADD DUP1 PUSH1 0x40 MSTORE POP DUP2 ADD SWAP1 PUSH2 0x34F SWAP2 SWAP1 PUSH2 0x123D JUMP JUMPDEST PUSH20 0xFFFFFFFFFFFFFFFFFFFFFFFFFFFFFFFFFFFFFFFF AND DUP2 MSTORE PUSH1 0x20 ADD DUP8 PUSH20 0xFFFFFFFFFFFFFFFFFFFFFFFFFFFFFFFFFFFFFFFF AND PUSH4 0xDDCA3F43 PUSH1 0x40 MLOAD DUP2 PUSH4 0xFFFFFFFF AND PUSH1 0xE0 SHL DUP2 MSTORE PUSH1 0x4 ADD PUSH1 0x20 PUSH1 0x40 MLOAD DUP1 DUP4 SUB DUP2 DUP7 GAS STATICCALL ISZERO DUP1 ISZERO PUSH2 0x3B5 JUMPI RETURNDATASIZE PUSH1 0x0 DUP1 RETURNDATACOPY RETURNDATASIZE PUSH1 0x0 REVERT JUMPDEST POP POP POP POP PUSH1 0x40 MLOAD RETURNDATASIZE PUSH1 0x1F NOT PUSH1 0x1F DUP3 ADD AND DUP3 ADD DUP1 PUSH1 0x40 MSTORE POP DUP2 ADD SWAP1 PUSH2 0x3D9 SWAP2 SWAP1 PUSH2 0x12A5 JUMP JUMPDEST PUSH3 0xFFFFFF AND DUP2 MSTORE PUSH1 0x20 ADD PUSH2 0x3EC DUP6 PUSH2 0x44D JUMP JUMPDEST PUSH1 0x2 SIGNEXTEND DUP2 MSTORE PUSH1 0x20 ADD PUSH2 0x3FD DUP5 PUSH2 0x44D JUMP JUMPDEST PUSH1 0x2 SIGNEXTEND DUP2 MSTORE PUSH1 0x20 ADD DUP11 DUP2 MSTORE PUSH1 0x20 ADD DUP10 DUP2 MSTORE PUSH1 0x20 ADD PUSH1 0x0 DUP2 MSTORE PUSH1 0x20 ADD PUSH1 0x0 DUP2 MSTORE PUSH1 0x20 ADD CALLER PUSH20 0xFFFFFFFFFFFFFFFFFFFFFFFFFFFFFFFFFFFFFFFF AND DUP2 MSTORE PUSH1 0x20 ADD TIMESTAMP DUP2 MSTORE POP SWAP1 POP POP POP POP POP POP POP POP POP POP POP JUMP JUMPDEST PUSH1 0x0 PUSH5 0x1000276A3 PUSH20 0xFFFFFFFFFFFFFFFFFFFFFFFFFFFFFFFFFFFFFFFF AND DUP3 PUSH20 0xFFFFFFFFFFFFFFFFFFFFFFFFFFFFFFFFFFFFFFFF AND LT ISZERO DUP1 ISZERO PUSH2 0x4CF JUMPI POP PUSH20 0xFFFD8963EFD1FC6A506488495D951D5263988D26 PUSH20 0xFFFFFFFFFFFFFFFFFFFFFFFFFFFFFFFFFFFFFFFF AND DUP3 PUSH20 0xFFFFFFFFFFFFFFFFFFFFFFFFFFFFFFFFFFFFFFFF AND LT JUMPDEST PUSH2 0x50E JUMPI PUSH1 0x40 MLOAD PUSH32 0x8C379A000000000000000000000000000000000000000000000000000000000 DUP2 MSTORE PUSH1 0x4 ADD PUSH2 0x505 SWAP1 PUSH2 0x132F JUMP JUMPDEST PUSH1 0x40 MLOAD DUP1 SWAP2 SUB SWAP1 REVERT JUMPDEST PUSH1 0x0 PUSH1 0x20 DUP4 PUSH20 0xFFFFFFFFFFFFFFFFFFFFFFFFFFFFFFFFFFFFFFFF AND SWAP1 SHL SWAP1 POP PUSH1 0x0 DUP2 SWAP1 POP PUSH1 0x0 PUSH16 0xFFFFFFFFFFFFFFFFFFFFFFFFFFFFFFFF DUP3 GT PUSH1 0x7 SHL DUP1 DUP3 OR SWAP2 POP DUP3 DUP2 SHR SWAP3 POP POP PUSH8 0xFFFFFFFFFFFFFFFF DUP3 GT PUSH1 0x6 SHL DUP1 DUP3 OR SWAP2 POP DUP3 DUP2 SHR SWAP3 POP POP PUSH4 0xFFFFFFFF DUP3 GT PUSH1 0x5 SHL DUP1 DUP3 OR SWAP2 POP DUP3 DUP2 SHR SWAP3 POP POP PUSH2 0xFFFF DUP3 GT PUSH1 0x4 SHL DUP1 DUP3 OR SWAP2 POP DUP3 DUP2 SHR SWAP3 POP POP PUSH1 0xFF DUP3 GT PUSH1 0x3 SHL DUP1 DUP3 OR SWAP2 POP DUP3 DUP2 SHR SWAP3 POP POP PUSH1 0xF DUP3 GT PUSH1 0x2 SHL DUP1 DUP3 OR SWAP2 POP DUP3 DUP2 SHR SWAP3 POP POP PUSH1 0x3 DUP3 GT PUSH1 0x1 SHL DUP1 DUP3 OR SWAP2 POP DUP3 DUP2 SHR SWAP3 POP POP PUSH1 0x1 DUP3 GT DUP1 DUP3 OR SWAP2 POP POP PUSH1 0x80 DUP2 LT PUSH2 0x5F5 JUMPI PUSH1 0x7F DUP2 PUSH2 0x5EB SWAP2 SWAP1 PUSH2 0xF83 JUMP JUMPDEST DUP4 SWAP1 SHR SWAP2 POP PUSH2 0x608 JUMP JUMPDEST DUP1 PUSH1 0x7F PUSH2 0x602 SWAP2 SWAP1 PUSH2 0xF83 JUMP JUMPDEST DUP4 SWAP1 SHL SWAP2 POP JUMPDEST PUSH1 0x0 PUSH1 0x40 PUSH1 0x80 DUP4 PUSH2 0x619 SWAP2 SWAP1 PUSH2 0x1359 JUMP JUMPDEST SWAP1 SHL SWAP1 POP DUP3 DUP4 MUL PUSH1 0x7F SHR SWAP3 POP DUP3 PUSH1 0x80 SHR DUP1 PUSH1 0x3F SHL DUP3 OR SWAP2 POP DUP4 DUP2 SHR SWAP4 POP POP DUP3 DUP4 MUL PUSH1 0x7F SHR SWAP3 POP DUP3 PUSH1 0x80 SHR DUP1 PUSH1 0x3E SHL DUP3 OR SWAP2 POP DUP4 DUP2 SHR SWAP4 POP POP DUP3 DUP4 MUL PUSH1 0x7F SHR SWAP3 POP DUP3 PUSH1 0x80 SHR DUP1 PUSH1 0x3D SHL DUP3 OR SWAP2 POP DUP4 DUP2 SHR SWAP4 POP POP DUP3 DUP4 MUL PUSH1 0x7F SHR SWAP3 POP DUP3 PUSH1 0x80 SHR DUP1 PUSH1 0x3C SHL DUP3 OR SWAP2 POP DUP4 DUP2 SHR SWAP4 POP POP DUP3 DUP4 MUL PUSH1 0x7F SHR SWAP3 POP DUP3 PUSH1 0x80 SHR DUP1 PUSH1 0x3B SHL DUP3 OR SWAP2 POP DUP4 DUP2 SHR SWAP4 POP POP DUP3 DUP4 MUL PUSH1 0x7F SHR SWAP3 POP DUP3 PUSH1 0x80 SHR DUP1 PUSH1 0x3A SHL DUP3 OR SWAP2 POP DUP4 DUP2 SHR SWAP4 POP POP DUP3 DUP4 MUL PUSH1 0x7F SHR SWAP3 POP DUP3 PUSH1 0x80 SHR DUP1 PUSH1 0x39 SHL DUP3 OR SWAP2 POP DUP4 DUP2 SHR SWAP4 POP POP DUP3 DUP4 MUL PUSH1 0x7F SHR SWAP3 POP DUP3 PUSH1 0x80 SHR DUP1 PUSH1 0x38 SHL DUP3 OR SWAP2 POP DUP4 DUP2 SHR SWAP4 POP POP DUP3 DUP4 MUL PUSH1 0x7F SHR SWAP3 POP DUP3 PUSH1 0x80 SHR DUP1 PUSH1 0x37 SHL DUP3 OR SWAP2 POP DUP4 DUP2 SHR SWAP4 POP POP DUP3 DUP4 MUL PUSH1 0x7F SHR SWAP3 POP DUP3 PUSH1 0x80 SHR DUP1 PUSH1 0x36 SHL DUP3 OR SWAP2 POP DUP4 DUP2 SHR SWAP4 POP POP DUP3 DUP4 MUL PUSH1 0x7F SHR SWAP3 POP DUP3 PUSH1 0x80 SHR DUP1 PUSH1 0x35 SHL DUP3 OR SWAP2 POP DUP4 DUP2 SHR SWAP4 POP POP DUP3 DUP4 MUL PUSH1 0x7F SHR SWAP3 POP DUP3 PUSH1 0x80 SHR DUP1 PUSH1 0x34 SHL DUP3 OR SWAP2 POP DUP4 DUP2 SHR SWAP4 POP POP DUP3 DUP4 MUL PUSH1 0x7F SHR SWAP3 POP DUP3 PUSH1 0x80 SHR DUP1 PUSH1 0x33 SHL DUP3 OR SWAP2 POP DUP4 DUP2 SHR SWAP4 POP POP DUP3 DUP4 MUL PUSH1 0x7F SHR SWAP3 POP DUP3 PUSH1 0x80 SHR DUP1 PUSH1 0x32 SHL DUP3 OR SWAP2 POP POP PUSH1 0x0 PUSH10 0x3627A301D71055774C85 DUP3 PUSH2 0x79C SWAP2 SWAP1 PUSH2 0x139C JUMP JUMPDEST SWAP1 POP PUSH1 0x0 PUSH1 0x80 PUSH16 0x28F6481AB7F045A5AF012A19D003AAA DUP4 PUSH2 0x7BE SWAP2 SWAP1 PUSH2 0x1359 JUMP JUMPDEST SWAP1 SAR SWAP1 POP PUSH1 0x0 PUSH1 0x80 PUSH16 0xDB2DF09E81959A81455E260799A0632F DUP5 PUSH2 0x7E2 SWAP2 SWAP1 PUSH2 0x1414 JUMP JUMPDEST SWAP1 SAR SWAP1 POP DUP1 PUSH1 0x2 SIGNEXTEND DUP3 PUSH1 0x2 SIGNEXTEND EQ PUSH2 0x83C JUMPI DUP9 PUSH20 0xFFFFFFFFFFFFFFFFFFFFFFFFFFFFFFFFFFFFFFFF AND PUSH2 0x813 DUP3 PUSH2 0x84C JUMP JUMPDEST PUSH20 0xFFFFFFFFFFFFFFFFFFFFFFFFFFFFFFFFFFFFFFFF AND GT ISZERO PUSH2 0x835 JUMPI DUP2 PUSH2 0x837 JUMP JUMPDEST DUP1 JUMPDEST PUSH2 0x83E JUMP JUMPDEST DUP2 JUMPDEST SWAP8 POP POP POP POP POP POP POP POP SWAP2 SWAP1 POP JUMP JUMPDEST PUSH1 0x0 DUP1 PUSH1 0x0 DUP4 PUSH1 0x2 SIGNEXTEND SLT PUSH2 0x863 JUMPI DUP3 PUSH1 0x2 SIGNEXTEND PUSH2 0x871 JUMP JUMPDEST DUP3 PUSH1 0x2 SIGNEXTEND PUSH2 0x870 SWAP1 PUSH2 0x1458 JUMP JUMPDEST JUMPDEST SWAP1 POP PUSH32 0xFFFFFFFFFFFFFFFFFFFFFFFFFFFFFFFFFFFFFFFFFFFFFFFFFFFFFFFFFFF27618 PUSH2 0x89D SWAP1 PUSH2 0x14A0 JUMP JUMPDEST PUSH1 0x2 SIGNEXTEND DUP2 GT ISZERO PUSH2 0x8E2 JUMPI PUSH1 0x40 MLOAD PUSH32 0x8C379A000000000000000000000000000000000000000000000000000000000 DUP2 MSTORE PUSH1 0x4 ADD PUSH2 0x8D9 SWAP1 PUSH2 0x1534 JUMP JUMPDEST PUSH1 0x40 MLOAD DUP1 SWAP2 SUB SWAP1 REVERT JUMPDEST PUSH1 0x0 DUP1 PUSH1 0x1 DUP4 AND SUB PUSH2 0x905 JUMPI PUSH17 0x100000000000000000000000000000000 PUSH2 0x917 JUMP JUMPDEST PUSH16 0xFFFCB933BD6FAD37AA2D162D1A594001 JUMPDEST PUSH17 0xFFFFFFFFFFFFFFFFFFFFFFFFFFFFFFFFFF AND SWAP1 POP PUSH1 0x0 PUSH1 0x2 DUP4 AND EQ PUSH2 0x95A JUMPI PUSH1 0x80 PUSH16 0xFFF97272373D413259A46990580E213A DUP3 PUSH2 0x955 SWAP2 SWAP1 PUSH2 0xFB7 JUMP JUMPDEST SWAP1 SHR SWAP1 POP JUMPDEST PUSH1 0x0 PUSH1 0x4 DUP4 AND EQ PUSH2 0x988 JUMPI PUSH1 0x80 PUSH16 0xFFF2E50F5F656932EF12357CF3C7FDCC DUP3 PUSH2 0x983 SWAP2 SWAP1 PUSH2 0xFB7 JUMP JUMPDEST SWAP1 SHR SWAP1 POP JUMPDEST PUSH1 0x0 PUSH1 0x8 DUP4 AND EQ PUSH2 0x9B6 JUMPI PUSH1 0x80 PUSH16 0xFFE5CACA7E10E4E61C3624EAA0941CD0 DUP3 PUSH2 0x9B1 SWAP2 SWAP1 PUSH2 0xFB7 JUMP JUMPDEST SWAP1 SHR SWAP1 POP JUMPDEST PUSH1 0x0 PUSH1 0x10 DUP4 AND EQ PUSH2 0x9E4 JUMPI PUSH1 0x80 PUSH16 0xFFCB9843D60F6159C9DB58835C926644 DUP3 PUSH2 0x9DF SWAP2 SWAP1 PUSH2 0xFB7 JUMP JUMPDEST SWAP1 SHR SWAP1 POP JUMPDEST PUSH1 0x0 PUSH1 0x20 DUP4 AND EQ PUSH2 0xA12 JUMPI PUSH1 0x80 PUSH16 0xFF973B41FA98C081472E6896DFB254C0 DUP3 PUSH2 0xA0D SWAP2 SWAP1 PUSH2 0xFB7 JUMP JUMPDEST SWAP1 SHR SWAP1 POP JUMPDEST PUSH1 0x0 PUSH1 0x40 DUP4 AND EQ PUSH2 0xA40 JUMPI PUSH1 0x80 PUSH16 0xFF2EA16466C96A3843EC78B326B52861 DUP3 PUSH2 0xA3B SWAP2 SWAP1 PUSH2 0xFB7 JUMP JUMPDEST SWAP1 SHR SWAP1 POP JUMPDEST PUSH1 0x0 PUSH1 0x80 DUP4 AND EQ PUSH2 0xA6E JUMPI PUSH1 0x80 PUSH16 0xFE5DEE046A99A2A811C461F1969C3053 DUP3 PUSH2 0xA69 SWAP2 SWAP1 PUSH2 0xFB7 JUMP JUMPDEST SWAP1 SHR SWAP1 POP JUMPDEST PUSH1 0x0 PUSH2 0x100 DUP4 AND EQ PUSH2 0xA9D JUMPI PUSH1 0x80 PUSH16 0xFCBE86C7900A88AEDCFFC83B479AA3A4 DUP3 PUSH2 0xA98 SWAP2 SWAP1 PUSH2 0xFB7 JUMP JUMPDEST SWAP1 SHR SWAP1 POP JUMPDEST PUSH1 0x0 PUSH2 0x200 DUP4 AND EQ PUSH2 0xACC JUMPI PUSH1 0x80 PUSH16 0xF987A7253AC413176F2B074CF7815E54 DUP3 PUSH2 0xAC7 SWAP2 SWAP1 PUSH2 0xFB7 JUMP JUMPDEST SWAP1 SHR SWAP1 POP JUMPDEST PUSH1 0x0 PUSH2 0x400 DUP4 AND EQ PUSH2 0xAFB JUMPI PUSH1 0x80 PUSH16 0xF3392B0822B70005940C7A398E4B70F3 DUP3 PUSH2 0xAF6 SWAP2 SWAP1 PUSH2 0xFB7 JUMP JUMPDEST SWAP1 SHR SWAP1 POP JUMPDEST PUSH1 0x0 PUSH2 0x800 DUP4 AND EQ PUSH2 0xB2A JUMPI PUSH1 0x80 PUSH16 0xE7159475A2C29B7443B29C7FA6E889D9 DUP3 PUSH2 0xB25 SWAP2 SWAP1 PUSH2 0xFB7 JUMP JUMPDEST SWAP1 SHR SWAP1 POP JUMPDEST PUSH1 0x0 PUSH2 0x1000 DUP4 AND EQ PUSH2 0xB59 JUMPI PUSH1 0x80 PUSH16 0xD097F3BDFD2022B8845AD8F792AA5825 DUP3 PUSH2 0xB54 SWAP2 SWAP1 PUSH2 0xFB7 JUMP JUMPDEST SWAP1 SHR SWAP1 POP JUMPDEST PUSH1 0x0 PUSH2 0x2000 DUP4 AND EQ PUSH2 0xB88 JUMPI PUSH1 0x80 PUSH16 0xA9F746462D870FDF8A65DC1F90E061E5 DUP3 PUSH2 0xB83 SWAP2 SWAP1 PUSH2 0xFB7 JUMP JUMPDEST SWAP1 SHR SWAP1 POP JUMPDEST PUSH1 0x0 PUSH2 0x4000 DUP4 AND EQ PUSH2 0xBB7 JUMPI PUSH1 0x80 PUSH16 0x70D869A156D2A1B890BB3DF62BAF32F7 DUP3 PUSH2 0xBB2 SWAP2 SWAP1 PUSH2 0xFB7 JUMP JUMPDEST SWAP1 SHR SWAP1 POP JUMPDEST PUSH1 0x0 PUSH2 0x8000 DUP4 AND EQ PUSH2 0xBE6 JUMPI PUSH1 0x80 PUSH16 0x31BE135F97D08FD981231505542FCFA6 DUP3 PUSH2 0xBE1 SWAP2 SWAP1 PUSH2 0xFB7 JUMP JUMPDEST SWAP1 SHR SWAP1 POP JUMPDEST PUSH1 0x0 PUSH3 0x10000 DUP4 AND EQ PUSH2 0xC16 JUMPI PUSH1 0x80 PUSH16 0x9AA508B5B7A84E1C677DE54F3E99BC9 DUP3 PUSH2 0xC11 SWAP2 SWAP1 PUSH2 0xFB7 JUMP JUMPDEST SWAP1 SHR SWAP1 POP JUMPDEST PUSH1 0x0 PUSH3 0x20000 DUP4 AND EQ PUSH2 0xC45 JUMPI PUSH1 0x80 PUSH15 0x5D6AF8DEDB81196699C329225EE604 DUP3 PUSH2 0xC40 SWAP2 SWAP1 PUSH2 0xFB7 JUMP JUMPDEST SWAP1 SHR SWAP1 POP JUMPDEST PUSH1 0x0 PUSH3 0x40000 DUP4 AND EQ PUSH2 0xC73 JUMPI PUSH1 0x80 PUSH14 0x2216E584F5FA1EA926041BEDFE98 DUP3 PUSH2 0xC6E SWAP2 SWAP1 PUSH2 0xFB7 JUMP JUMPDEST SWAP1 SHR SWAP1 POP JUMPDEST PUSH1 0x0 PUSH3 0x80000 DUP4 AND EQ PUSH2 0xC9F JUMPI PUSH1 0x80 PUSH12 0x48A170391F7DC42444E8FA2 DUP3 PUSH2 0xC9A SWAP2 SWAP1 PUSH2 0xFB7 JUMP JUMPDEST SWAP1 SHR SWAP1 POP JUMPDEST PUSH1 0x0 DUP5 PUSH1 0x2 SIGNEXTEND SGT ISZERO PUSH2 0xCDA JUMPI DUP1 PUSH32 0xFFFFFFFFFFFFFFFFFFFFFFFFFFFFFFFFFFFFFFFFFFFFFFFFFFFFFFFFFFFFFFFF PUSH2 0xCD7 SWAP2 SWAP1 PUSH2 0x1028 JUMP JUMPDEST SWAP1 POP JUMPDEST PUSH1 0x0 PUSH5 0x100000000 DUP3 PUSH2 0xCED SWAP2 SWAP1 PUSH2 0x1554 JUMP JUMPDEST EQ PUSH2 0xCF9 JUMPI PUSH1 0x1 PUSH2 0xCFC JUMP JUMPDEST PUSH1 0x0 JUMPDEST PUSH1 0xFF AND PUSH1 0x20 DUP3 SWAP1 SHR PUSH2 0xD0E SWAP2 SWAP1 PUSH2 0x1059 JUMP JUMPDEST SWAP3 POP POP POP SWAP2 SWAP1 POP JUMP JUMPDEST PUSH1 0x0 DUP1 REVERT JUMPDEST PUSH1 0x0 DUP2 SWAP1 POP SWAP2 SWAP1 POP JUMP JUMPDEST PUSH2 0xD2F DUP2 PUSH2 0xD1C JUMP JUMPDEST DUP2 EQ PUSH2 0xD3A JUMPI PUSH1 0x0 DUP1 REVERT JUMPDEST POP JUMP JUMPDEST PUSH1 0x0 DUP2 CALLDATALOAD SWAP1 POP PUSH2 0xD4C DUP2 PUSH2 0xD26 JUMP JUMPDEST SWAP3 SWAP2 POP POP JUMP JUMPDEST PUSH1 0x0 DUP1 PUSH1 0x40 DUP4 DUP6 SUB SLT ISZERO PUSH2 0xD69 JUMPI PUSH2 0xD68 PUSH2 0xD17 JUMP JUMPDEST JUMPDEST PUSH1 0x0 PUSH2 0xD77 DUP6 DUP3 DUP7 ADD PUSH2 0xD3D JUMP JUMPDEST SWAP3 POP POP PUSH1 0x20 PUSH2 0xD88 DUP6 DUP3 DUP7 ADD PUSH2 0xD3D JUMP JUMPDEST SWAP2 POP POP SWAP3 POP SWAP3 SWAP1 POP JUMP JUMPDEST PUSH2 0xD9B DUP2 PUSH2 0xD1C JUMP JUMPDEST DUP3 MSTORE POP POP JUMP JUMPDEST PUSH1 0x0 PUSH1 0x20 DUP3 ADD SWAP1 POP PUSH2 0xDB6 PUSH1 0x0 DUP4 ADD DUP5 PUSH2 0xD92 JUMP JUMPDEST SWAP3 SWAP2 POP POP JUMP JUMPDEST PUSH1 0x0 PUSH20 0xFFFFFFFFFFFFFFFFFFFFFFFFFFFFFFFFFFFFFFFF DUP3 AND SWAP1 POP SWAP2 SWAP1 POP JUMP JUMPDEST PUSH2 0xDE5 DUP2 PUSH2 0xDBC JUMP JUMPDEST DUP2 EQ PUSH2 0xDF0 JUMPI PUSH1 0x0 DUP1 REVERT JUMPDEST POP JUMP JUMPDEST PUSH1 0x0 DUP2 CALLDATALOAD SWAP1 POP PUSH2 0xE02 DUP2 PUSH2 0xDDC JUMP JUMPDEST SWAP3 SWAP2 POP POP JUMP JUMPDEST PUSH1 0x0 PUSH1 0x20 DUP3 DUP5 SUB SLT ISZERO PUSH2 0xE1E JUMPI PUSH2 0xE1D PUSH2 0xD17 JUMP JUMPDEST JUMPDEST PUSH1 0x0 PUSH2 0xE2C DUP5 DUP3 DUP6 ADD PUSH2 0xDF3 JUMP JUMPDEST SWAP2 POP POP SWAP3 SWAP2 POP POP JUMP JUMPDEST PUSH1 0x0 DUP2 SWAP1 POP SWAP2 SWAP1 POP JUMP JUMPDEST PUSH1 0x0 PUSH2 0xE5A PUSH2 0xE55 PUSH2 0xE50 DUP5 PUSH2 0xDBC JUMP JUMPDEST PUSH2 0xE35 JUMP JUMPDEST PUSH2 0xDBC JUMP JUMPDEST SWAP1 POP SWAP2 SWAP1 POP JUMP JUMPDEST PUSH1 0x0 PUSH2 0xE6C DUP3 PUSH2 0xE3F JUMP JUMPDEST SWAP1 POP SWAP2 SWAP1 POP JUMP JUMPDEST PUSH1 0x0 PUSH2 0xE7E DUP3 PUSH2 0xE61 JUMP JUMPDEST SWAP1 POP SWAP2 SWAP1 POP JUMP JUMPDEST PUSH2 0xE8E DUP2 PUSH2 0xE73 JUMP JUMPDEST DUP3 MSTORE POP POP JUMP JUMPDEST PUSH1 0x0 PUSH1 0x20 DUP3 ADD SWAP1 POP PUSH2 0xEA9 PUSH1 0x0 DUP4 ADD DUP5 PUSH2 0xE85 JUMP JUMPDEST SWAP3 SWAP2 POP POP JUMP JUMPDEST PUSH1 0x0 PUSH2 0xEBA DUP3 PUSH2 0xDBC JUMP JUMPDEST SWAP1 POP SWAP2 SWAP1 POP JUMP JUMPDEST PUSH2 0xECA DUP2 PUSH2 0xEAF JUMP JUMPDEST DUP2 EQ PUSH2 0xED5 JUMPI PUSH1 0x0 DUP1 REVERT JUMPDEST POP JUMP JUMPDEST PUSH1 0x0 DUP2 CALLDATALOAD SWAP1 POP PUSH2 0xEE7 DUP2 PUSH2 0xEC1 JUMP JUMPDEST SWAP3 SWAP2 POP POP JUMP JUMPDEST PUSH1 0x0 DUP1 PUSH1 0x0 DUP1 PUSH1 0x80 DUP6 DUP8 SUB SLT ISZERO PUSH2 0xF07 JUMPI PUSH2 0xF06 PUSH2 0xD17 JUMP JUMPDEST JUMPDEST PUSH1 0x0 PUSH2 0xF15 DUP8 DUP3 DUP9 ADD PUSH2 0xED8 JUMP JUMPDEST SWAP5 POP POP PUSH1 0x20 PUSH2 0xF26 DUP8 DUP3 DUP9 ADD PUSH2 0xD3D JUMP JUMPDEST SWAP4 POP POP PUSH1 0x40 PUSH2 0xF37 DUP8 DUP3 DUP9 ADD PUSH2 0xD3D JUMP JUMPDEST SWAP3 POP POP PUSH1 0x60 PUSH2 0xF48 DUP8 DUP3 DUP9 ADD PUSH2 0xD3D JUMP JUMPDEST SWAP2 POP POP SWAP3 SWAP6 SWAP2 SWAP5 POP SWAP3 POP JUMP JUMPDEST PUSH32 0x4E487B7100000000000000000000000000000000000000000000000000000000 PUSH1 0x0 MSTORE PUSH1 0x11 PUSH1 0x4 MSTORE PUSH1 0x24 PUSH1 0x0 REVERT JUMPDEST PUSH1 0x0 PUSH2 0xF8E DUP3 PUSH2 0xD1C JUMP JUMPDEST SWAP2 POP PUSH2 0xF99 DUP4 PUSH2 0xD1C JUMP JUMPDEST SWAP3 POP DUP3 DUP3 SUB SWAP1 POP DUP2 DUP2 GT ISZERO PUSH2 0xFB1 JUMPI PUSH2 0xFB0 PUSH2 0xF54 JUMP JUMPDEST JUMPDEST SWAP3 SWAP2 POP POP JUMP JUMPDEST PUSH1 0x0 PUSH2 0xFC2 DUP3 PUSH2 0xD1C JUMP JUMPDEST SWAP2 POP PUSH2 0xFCD DUP4 PUSH2 0xD1C JUMP JUMPDEST SWAP3 POP DUP3 DUP3 MUL PUSH2 0xFDB DUP2 PUSH2 0xD1C JUMP JUMPDEST SWAP2 POP DUP3 DUP3 DIV DUP5 EQ DUP4 ISZERO OR PUSH2 0xFF2 JUMPI PUSH2 0xFF1 PUSH2 0xF54 JUMP JUMPDEST JUMPDEST POP SWAP3 SWAP2 POP POP JUMP JUMPDEST PUSH32 0x4E487B7100000000000000000000000000000000000000000000000000000000 PUSH1 0x0 MSTORE PUSH1 0x12 PUSH1 0x4 MSTORE PUSH1 0x24 PUSH1 0x0 REVERT JUMPDEST PUSH1 0x0 PUSH2 0x1033 DUP3 PUSH2 0xD1C JUMP JUMPDEST SWAP2 POP PUSH2 0x103E DUP4 PUSH2 0xD1C JUMP JUMPDEST SWAP3 POP DUP3 PUSH2 0x104E JUMPI PUSH2 0x104D PUSH2 0xFF9 JUMP JUMPDEST JUMPDEST DUP3 DUP3 DIV SWAP1 POP SWAP3 SWAP2 POP POP JUMP JUMPDEST PUSH1 0x0 PUSH2 0x1064 DUP3 PUSH2 0xD1C JUMP JUMPDEST SWAP2 POP PUSH2 0x106F DUP4 PUSH2 0xD1C JUMP JUMPDEST SWAP3 POP DUP3 DUP3 ADD SWAP1 POP DUP1 DUP3 GT ISZERO PUSH2 0x1087 JUMPI PUSH2 0x1086 PUSH2 0xF54 JUMP JUMPDEST JUMPDEST SWAP3 SWAP2 POP POP JUMP JUMPDEST PUSH1 0x0 DUP2 MLOAD SWAP1 POP PUSH2 0x109C DUP2 PUSH2 0xDDC JUMP JUMPDEST SWAP3 SWAP2 POP POP JUMP JUMPDEST PUSH1 0x0 DUP2 PUSH1 0x2 SIGNEXTEND SWAP1 POP SWAP2 SWAP1 POP JUMP JUMPDEST PUSH2 0x10B8 DUP2 PUSH2 0x10A2 JUMP JUMPDEST DUP2 EQ PUSH2 0x10C3 JUMPI PUSH1 0x0 DUP1 REVERT JUMPDEST POP JUMP JUMPDEST PUSH1 0x0 DUP2 MLOAD SWAP1 POP PUSH2 0x10D5 DUP2 PUSH2 0x10AF JUMP JUMPDEST SWAP3 SWAP2 POP POP JUMP JUMPDEST PUSH1 0x0 PUSH2 0xFFFF DUP3 AND SWAP1 POP SWAP2 SWAP1 POP JUMP JUMPDEST PUSH2 0x10F2 DUP2 PUSH2 0x10DB JUMP JUMPDEST DUP2 EQ PUSH2 0x10FD JUMPI PUSH1 0x0 DUP1 REVERT JUMPDEST POP JUMP JUMPDEST PUSH1 0x0 DUP2 MLOAD SWAP1 POP PUSH2 0x110F DUP2 PUSH2 0x10E9 JUMP JUMPDEST SWAP3 SWAP2 POP POP JUMP JUMPDEST PUSH1 0x0 PUSH1 0xFF DUP3 AND SWAP1 POP SWAP2 SWAP1 POP JUMP JUMPDEST PUSH2 0x112B DUP2 PUSH2 0x1115 JUMP JUMPDEST DUP2 EQ PUSH2 0x1136 JUMPI PUSH1 0x0 DUP1 REVERT JUMPDEST POP JUMP JUMPDEST PUSH1 0x0 DUP2 MLOAD SWAP1 POP PUSH2 0x1148 DUP2 PUSH2 0x1122 JUMP JUMPDEST SWAP3 SWAP2 POP POP JUMP JUMPDEST PUSH1 0x0 DUP2 ISZERO ISZERO SWAP1 POP SWAP2 SWAP1 POP JUMP JUMPDEST PUSH2 0x1163 DUP2 PUSH2 0x114E JUMP JUMPDEST DUP2 EQ PUSH2 0x116E JUMPI PUSH1 0x0 DUP1 REVERT JUMPDEST POP JUMP JUMPDEST PUSH1 0x0 DUP2 MLOAD SWAP1 POP PUSH2 0x1180 DUP2 PUSH2 0x115A JUMP JUMPDEST SWAP3 SWAP2 POP POP JUMP JUMPDEST PUSH1 0x0 DUP1 PUSH1 0x0 DUP1 PUSH1 0x0 DUP1 PUSH1 0x0 PUSH1 0xE0 DUP9 DUP11 SUB SLT ISZERO PUSH2 0x11A5 JUMPI PUSH2 0x11A4 PUSH2 0xD17 JUMP JUMPDEST JUMPDEST PUSH1 0x0 PUSH2 0x11B3 DUP11 DUP3 DUP12 ADD PUSH2 0x108D JUMP JUMPDEST SWAP8 POP POP PUSH1 0x20 PUSH2 0x11C4 DUP11 DUP3 DUP12 ADD PUSH2 0x10C6 JUMP JUMPDEST SWAP7 POP POP PUSH1 0x40 PUSH2 0x11D5 DUP11 DUP3 DUP12 ADD PUSH2 0x1100 JUMP JUMPDEST SWAP6 POP POP PUSH1 0x60 PUSH2 0x11E6 DUP11 DUP3 DUP12 ADD PUSH2 0x1100 JUMP JUMPDEST SWAP5 POP POP PUSH1 0x80 PUSH2 0x11F7 DUP11 DUP3 DUP12 ADD PUSH2 0x1100 JUMP JUMPDEST SWAP4 POP POP PUSH1 0xA0 PUSH2 0x1208 DUP11 DUP3 DUP12 ADD PUSH2 0x1139 JUMP JUMPDEST SWAP3 POP POP PUSH1 0xC0 PUSH2 0x1219 DUP11 DUP3 DUP12 ADD PUSH2 0x1171 JUMP JUMPDEST SWAP2 POP POP SWAP3 SWAP6 SWAP9 SWAP2 SWAP5 SWAP8 POP SWAP3 SWAP6 POP JUMP JUMPDEST PUSH1 0x0 DUP2 MLOAD SWAP1 POP PUSH2 0x1237 DUP2 PUSH2 0xEC1 JUMP JUMPDEST SWAP3 SWAP2 POP POP JUMP JUMPDEST PUSH1 0x0 PUSH1 0x20 DUP3 DUP5 SUB SLT ISZERO PUSH2 0x1253 JUMPI PUSH2 0x1252 PUSH2 0xD17 JUMP JUMPDEST JUMPDEST PUSH1 0x0 PUSH2 0x1261 DUP5 DUP3 DUP6 ADD PUSH2 0x1228 JUMP JUMPDEST SWAP2 POP POP SWAP3 SWAP2 POP POP JUMP JUMPDEST PUSH1 0x0 PUSH3 0xFFFFFF DUP3 AND SWAP1 POP SWAP2 SWAP1 POP JUMP JUMPDEST PUSH2 0x1282 DUP2 PUSH2 0x126A JUMP JUMPDEST DUP2 EQ PUSH2 0x128D JUMPI PUSH1 0x0 DUP1 REVERT JUMPDEST POP JUMP JUMPDEST PUSH1 0x0 DUP2 MLOAD SWAP1 POP PUSH2 0x129F DUP2 PUSH2 0x1279 JUMP JUMPDEST SWAP3 SWAP2 POP POP JUMP JUMPDEST PUSH1 0x0 PUSH1 0x20 DUP3 DUP5 SUB SLT ISZERO PUSH2 0x12BB JUMPI PUSH2 0x12BA PUSH2 0xD17 JUMP JUMPDEST JUMPDEST PUSH1 0x0 PUSH2 0x12C9 DUP5 DUP3 DUP6 ADD PUSH2 0x1290 JUMP JUMPDEST SWAP2 POP POP SWAP3 SWAP2 POP POP JUMP JUMPDEST PUSH1 0x0 DUP3 DUP3 MSTORE PUSH1 0x20 DUP3 ADD SWAP1 POP SWAP3 SWAP2 POP POP JUMP JUMPDEST PUSH32 0x5200000000000000000000000000000000000000000000000000000000000000 PUSH1 0x0 DUP3 ADD MSTORE POP JUMP JUMPDEST PUSH1 0x0 PUSH2 0x1319 PUSH1 0x1 DUP4 PUSH2 0x12D2 JUMP JUMPDEST SWAP2 POP PUSH2 0x1324 DUP3 PUSH2 0x12E3 JUMP JUMPDEST PUSH1 0x20 DUP3 ADD SWAP1 POP SWAP2 SWAP1 POP JUMP JUMPDEST PUSH1 0x0 PUSH1 0x20 DUP3 ADD SWAP1 POP DUP2 DUP2 SUB PUSH1 0x0 DUP4 ADD MSTORE PUSH2 0x1348 DUP2 PUSH2 0x130C JUMP JUMPDEST SWAP1 POP SWAP2 SWAP1 POP JUMP JUMPDEST PUSH1 0x0 DUP2 SWAP1 POP SWAP2 SWAP1 POP JUMP JUMPDEST PUSH1 0x0 PUSH2 0x1364 DUP3 PUSH2 0x134F JUMP JUMPDEST SWAP2 POP PUSH2 0x136F DUP4 PUSH2 0x134F JUMP JUMPDEST SWAP3 POP DUP3 DUP3 SUB SWAP1 POP DUP2 DUP2 SLT PUSH1 0x0 DUP5 SLT AND DUP3 DUP3 SGT PUSH1 0x0 DUP6 SLT ISZERO AND OR ISZERO PUSH2 0x1396 JUMPI PUSH2 0x1395 PUSH2 0xF54 JUMP JUMPDEST JUMPDEST SWAP3 SWAP2 POP POP JUMP JUMPDEST PUSH1 0x0 PUSH2 0x13A7 DUP3 PUSH2 0x134F JUMP JUMPDEST SWAP2 POP PUSH2 0x13B2 DUP4 PUSH2 0x134F JUMP JUMPDEST SWAP3 POP DUP3 DUP3 MUL PUSH2 0x13C0 DUP2 PUSH2 0x134F JUMP JUMPDEST SWAP2 POP PUSH32 0x8000000000000000000000000000000000000000000000000000000000000000 DUP5 EQ PUSH1 0x0 DUP5 SLT AND ISZERO PUSH2 0x13F8 JUMPI PUSH2 0x13F7 PUSH2 0xF54 JUMP JUMPDEST JUMPDEST DUP3 DUP3 SDIV DUP5 EQ DUP4 ISZERO OR PUSH2 0x140D JUMPI PUSH2 0x140C PUSH2 0xF54 JUMP JUMPDEST JUMPDEST POP SWAP3 SWAP2 POP POP JUMP JUMPDEST PUSH1 0x0 PUSH2 0x141F DUP3 PUSH2 0x134F JUMP JUMPDEST SWAP2 POP PUSH2 0x142A DUP4 PUSH2 0x134F JUMP JUMPDEST SWAP3 POP DUP3 DUP3 ADD SWAP1 POP DUP3 DUP2 SLT ISZERO PUSH1 0x0 DUP4 SLT AND DUP4 DUP3 SLT PUSH1 0x0 DUP5 SLT ISZERO AND OR ISZERO PUSH2 0x1452 JUMPI PUSH2 0x1451 PUSH2 0xF54 JUMP JUMPDEST JUMPDEST SWAP3 SWAP2 POP POP JUMP JUMPDEST PUSH1 0x0 PUSH2 0x1463 DUP3 PUSH2 0x134F JUMP JUMPDEST SWAP2 POP PUSH32 0x8000000000000000000000000000000000000000000000000000000000000000 DUP3 SUB PUSH2 0x1495 JUMPI PUSH2 0x1494 PUSH2 0xF54 JUMP JUMPDEST JUMPDEST DUP2 PUSH1 0x0 SUB SWAP1 POP SWAP2 SWAP1 POP JUMP JUMPDEST PUSH1 0x0 PUSH2 0x14AB DUP3 PUSH2 0x10A2 JUMP JUMPDEST SWAP2 POP PUSH32 0xFFFFFFFFFFFFFFFFFFFFFFFFFFFFFFFFFFFFFFFFFFFFFFFFFFFFFFFFFF800000 DUP3 SUB PUSH2 0x14DD JUMPI PUSH2 0x14DC PUSH2 0xF54 JUMP JUMPDEST JUMPDEST DUP2 PUSH1 0x0 SUB SWAP1 POP SWAP2 SWAP1 POP JUMP JUMPDEST PUSH32 0x5400000000000000000000000000000000000000000000000000000000000000 PUSH1 0x0 DUP3 ADD MSTORE POP JUMP JUMPDEST PUSH1 0x0 PUSH2 0x151E PUSH1 0x1 DUP4 PUSH2 0x12D2 JUMP JUMPDEST SWAP2 POP PUSH2 0x1529 DUP3 PUSH2 0x14E8 JUMP JUMPDEST PUSH1 0x20 DUP3 ADD SWAP1 POP SWAP2 SWAP1 POP JUMP JUMPDEST PUSH1 0x0 PUSH1 0x20 DUP3 ADD SWAP1 POP DUP2 DUP2 SUB PUSH1 0x0 DUP4 ADD MSTORE PUSH2 0x154D DUP2 PUSH2 0x1511 JUMP JUMPDEST SWAP1 POP SWAP2 SWAP1 POP JUMP JUMPDEST PUSH1 0x0 PUSH2 0x155F DUP3 PUSH2 0xD1C JUMP JUMPDEST SWAP2 POP PUSH2 0x156A DUP4 PUSH2 0xD1C JUMP JUMPDEST SWAP3 POP DUP3 PUSH2 0x157A JUMPI PUSH2 0x1579 PUSH2 0xFF9 JUMP JUMPDEST JUMPDEST DUP3 DUP3 MOD SWAP1 POP SWAP3 SWAP2 POP POP JUMP INVALID LOG2 PUSH5 0x6970667358 0x22 SLT KECCAK256 0xAB POP SWAP3 0x2C AND MSTORE8 0xD9 0xCF 0x25 CODESIZE SDIV PUSH5 0xA16B92A041 SWAP7 PUSH32 0x217295C3811F6532DF348CA19264736F6C634300081800330000000000000000 "},"methodIdentifiers":{"calculateLowerPrice(uint160)":"65e041b2","calculateUpperPrice(uint256,uint256)":"3758b361","createPosition(address,uint256,uint256,uint256)":"f8c4ee6d","positionManager()":"791b98bc"}}}}}