{
  "_format": "hh-sol-artifact-1",
  "contractName": "AddLiquidity",
  "sourceName": "contracts/AddLiquidity.sol",
  "abi": [
    {
      "inputs": [
        {
          "internalType": "address",
          "name": "_positionManager",
          "type": "address"
        }
      ],
      "stateMutability": "nonpayable",
      "type": "constructor"
    },
    {
      "inputs": [
        {
          "internalType": "address",
          "name": "target",
          "type": "address"
        }
      ],
      "name": "AddressEmptyCode",
      "type": "error"
    },
    {
      "inputs": [
        {
          "internalType": "address",
          "name": "account",
          "type": "address"
        }
      ],
      "name": "AddressInsufficientBalance",
      "type": "error"
    },
    {
      "inputs": [],
      "name": "FailedInnerCall",
      "type": "error"
    },
    {
      "inputs": [
        {
          "internalType": "address",
          "name": "token",
          "type": "address"
        }
      ],
      "name": "SafeERC20FailedOperation",
      "type": "error"
    },
    {
      "inputs": [
        {
          "internalType": "address",
          "name": "pool",
          "type": "address"
        },
        {
          "internalType": "uint256",
          "name": "amount0",
          "type": "uint256"
        },
        {
          "internalType": "uint256",
          "name": "amount1",
          "type": "uint256"
        },
        {
          "internalType": "uint256",
          "name": "width",
          "type": "uint256"
        }
      ],
      "name": "addLiquidity",
      "outputs": [],
      "stateMutability": "nonpayable",
      "type": "function"
    },
    {
      "inputs": [
        {
          "internalType": "uint160",
          "name": "sqrtPriceX96",
          "type": "uint160"
        },
        {
          "internalType": "uint256",
          "name": "width",
          "type": "uint256"
        }
      ],
      "name": "getLowerTick",
      "outputs": [
        {
          "internalType": "int24",
          "name": "",
          "type": "int24"
        }
      ],
      "stateMutability": "view",
      "type": "function"
    },
    {
      "inputs": [
        {
          "internalType": "uint160",
          "name": "sqrtPrice",
          "type": "uint160"
        }
      ],
      "name": "getPrice",
      "outputs": [
        {
          "internalType": "uint256",
          "name": "",
          "type": "uint256"
        }
      ],
      "stateMutability": "view",
      "type": "function"
    },
    {
      "inputs": [
        {
          "internalType": "int24",
          "name": "tick",
          "type": "int24"
        }
      ],
      "name": "getSqrtPrice",
      "outputs": [
        {
          "internalType": "uint160",
          "name": "",
          "type": "uint160"
        }
      ],
      "stateMutability": "view",
      "type": "function"
    },
    {
      "inputs": [
        {
          "internalType": "uint160",
          "name": "sqrtPriceX96",
          "type": "uint160"
        },
        {
          "internalType": "uint256",
          "name": "width",
          "type": "uint256"
        }
      ],
      "name": "getUpperTick",
      "outputs": [
        {
          "internalType": "int24",
          "name": "",
          "type": "int24"
        }
      ],
      "stateMutability": "view",
      "type": "function"
    },
    {
      "inputs": [
        {
          "internalType": "int24",
          "name": "tick_",
          "type": "int24"
        },
        {
          "internalType": "int24",
          "name": "tickSpacing",
          "type": "int24"
        }
      ],
      "name": "nearestUsableTick",
      "outputs": [
        {
          "internalType": "int24",
          "name": "result",
          "type": "int24"
        }
      ],
      "stateMutability": "pure",
      "type": "function"
    },
    {
      "inputs": [],
      "name": "positionManager",
      "outputs": [
        {
          "internalType": "contract INonfungiblePositionManager",
          "name": "",
          "type": "address"
        }
      ],
      "stateMutability": "view",
      "type": "function"
    },
    {
      "inputs": [
        {
          "internalType": "uint256",
          "name": "y",
          "type": "uint256"
        }
      ],
      "name": "sqrt",
      "outputs": [
        {
          "internalType": "uint256",
          "name": "z",
          "type": "uint256"
        }
      ],
      "stateMutability": "pure",
      "type": "function"
    },
    {
      "inputs": [],
      "name": "tokenId",
      "outputs": [
        {
          "internalType": "uint256",
          "name": "",
          "type": "uint256"
        }
      ],
      "stateMutability": "view",
      "type": "function"
    }
  ],
  "bytecode": "0x60806040523480156200001157600080fd5b506040516200279e3803806200279e8339818101604052810190620000379190620000e8565b806000806101000a81548173ffffffffffffffffffffffffffffffffffffffff021916908373ffffffffffffffffffffffffffffffffffffffff160217905550506200011a565b600080fd5b600073ffffffffffffffffffffffffffffffffffffffff82169050919050565b6000620000b08262000083565b9050919050565b620000c281620000a3565b8114620000ce57600080fd5b50565b600081519050620000e281620000b7565b92915050565b6000602082840312156200010157620001006200007e565b5b60006200011184828501620000d1565b91505092915050565b612674806200012a6000396000f3fe608060405234801561001057600080fd5b50600436106100935760003560e01c80637dfabf76116100665780637dfabf7614610120578063a2e0998d14610150578063b4a6b03e14610180578063c43d0c13146101b0578063d9c7c1a9146101e057610093565b806317d70f7c146100985780631ece366a146100b6578063677342ce146100d2578063791b98bc14610102575b600080fd5b6100a0610210565b6040516100ad91906117b7565b60405180910390f35b6100d060048036038101906100cb9190611861565b610216565b005b6100ec60048036038101906100e791906118c8565b61073f565b6040516100f991906117b7565b60405180910390f35b61010a6107b9565b6040516101179190611954565b60405180910390f35b61013a600480360381019061013591906119a8565b6107dd565b60405161014791906119e4565b60405180910390f35b61016a60048036038101906101659190611a2b565b6107ef565b6040516101779190611a7a565b60405180910390f35b61019a60048036038101906101959190611a95565b610857565b6040516101a79190611a7a565b60405180910390f35b6101ca60048036038101906101c59190611a2b565b610904565b6040516101d79190611a7a565b60405180910390f35b6101fa60048036038101906101f59190611ad5565b61096c565b60405161020791906117b7565b60405180910390f35b60015481565b60008490506102d460008054906101000a900473ffffffffffffffffffffffffffffffffffffffff16858373ffffffffffffffffffffffffffffffffffffffff16630dfe16816040518163ffffffff1660e01b8152600401602060405180830381865afa15801561028b573d6000803e3d6000fd5b505050506040513d601f19601f820116820180604052508101906102af9190611b17565b73ffffffffffffffffffffffffffffffffffffffff166109d19092919063ffffffff16565b61038d60008054906101000a900473ffffffffffffffffffffffffffffffffffffffff16848373ffffffffffffffffffffffffffffffffffffffff1663d21220a76040518163ffffffff1660e01b8152600401602060405180830381865afa158015610344573d6000803e3d6000fd5b505050506040513d601f19601f820116820180604052508101906103689190611b17565b73ffffffffffffffffffffffffffffffffffffffff166109d19092919063ffffffff16565b6000808273ffffffffffffffffffffffffffffffffffffffff16633850c7bd6040518163ffffffff1660e01b815260040160e060405180830381865afa1580156103db573d6000803e3d6000fd5b505050506040513d601f19601f820116820180604052508101906103ff9190611c19565b50505050509150915060008373ffffffffffffffffffffffffffffffffffffffff1663d0c93a7c6040518163ffffffff1660e01b8152600401602060405180830381865afa158015610455573d6000803e3d6000fd5b505050506040513d601f19601f820116820180604052508101906104799190611cbb565b905060006040518061016001604052808673ffffffffffffffffffffffffffffffffffffffff16630dfe16816040518163ffffffff1660e01b8152600401602060405180830381865afa1580156104d4573d6000803e3d6000fd5b505050506040513d601f19601f820116820180604052508101906104f89190611b17565b73ffffffffffffffffffffffffffffffffffffffff1681526020018673ffffffffffffffffffffffffffffffffffffffff1663d21220a76040518163ffffffff1660e01b8152600401602060405180830381865afa15801561055e573d6000803e3d6000fd5b505050506040513d601f19601f820116820180604052508101906105829190611b17565b73ffffffffffffffffffffffffffffffffffffffff1681526020018673ffffffffffffffffffffffffffffffffffffffff1663ddca3f436040518163ffffffff1660e01b8152600401602060405180830381865afa1580156105e8573d6000803e3d6000fd5b505050506040513d601f19601f8201168201806040525081019061060c9190611d23565b62ffffff168152602001610629610623878a610904565b85610857565b60020b815260200161064461063e878a6107ef565b85610857565b60020b815260200189815260200188815260200160008152602001600081526020013073ffffffffffffffffffffffffffffffffffffffff16815260200142815250905060008054906101000a900473ffffffffffffffffffffffffffffffffffffffff1673ffffffffffffffffffffffffffffffffffffffff166388316456826040518263ffffffff1660e01b81526004016106e19190611e6d565b6080604051808303816000875af1158015610700573d6000803e3d6000fd5b505050506040513d601f19601f820116820180604052508101906107249190611ee6565b90915090505060016000829190505550505050505050505050565b600060038211156107a6578190506000600160028461075e9190611fab565b6107689190611fdc565b90505b818110156107a05780915060028182856107859190611fab565b61078f9190611fdc565b6107999190611fab565b905061076b565b506107b4565b600082146107b357600190505b5b919050565b60008054906101000a900473ffffffffffffffffffffffffffffffffffffffff1681565b60006107e882610ae0565b9050919050565b60008061084b61271061081b6127108661271061080c9190611fdc565b6108169190612010565b61073f565b8673ffffffffffffffffffffffffffffffffffffffff1661083c9190612010565b6108469190611fab565b610fab565b90508091505092915050565b60008161086a8460020b8460020b6113aa565b6108749190612052565b90507ffffffffffffffffffffffffffffffffffffffffffffffffffffffffffff2761860020b8160020b12156108b75781816108b0919061208f565b90506108fe565b7ffffffffffffffffffffffffffffffffffffffffffffffffffffffffffff276186108e1906120ea565b60020b8160020b13156108fd5781816108fa9190612132565b90505b5b92915050565b60008061096061271061093061271086612710610921919061218d565b61092b9190612010565b61073f565b8673ffffffffffffffffffffffffffffffffffffffff166109519190612010565b61095b9190611fab565b610fab565b90508091505092915050565b600078010000000000000000000000000000000000000000000000008273ffffffffffffffffffffffffffffffffffffffff168373ffffffffffffffffffffffffffffffffffffffff166109c09190612010565b6109ca9190611fab565b9050919050565b60008373ffffffffffffffffffffffffffffffffffffffff1663095ea7b38484604051602401610a029291906121d0565b604051602081830303815290604052915060e01b6020820180517bffffffffffffffffffffffffffffffffffffffffffffffffffffffff83818316178352505050509050610a508482611400565b610ada57610acf848573ffffffffffffffffffffffffffffffffffffffff1663095ea7b3866000604051602401610a88929190612234565b604051602081830303815290604052915060e01b6020820180517bffffffffffffffffffffffffffffffffffffffffffffffffffffffff83818316178352505050506114c7565b610ad984826114c7565b5b50505050565b60008060008360020b12610af7578260020b610b05565b8260020b610b0490612267565b5b90507ffffffffffffffffffffffffffffffffffffffffffffffffffffffffffff27618610b31906120ea565b60020b811115610b76576040517f08c379a0000000000000000000000000000000000000000000000000000000008152600401610b6d9061230c565b60405180910390fd5b6000806001831603610b9957700100000000000000000000000000000000610bab565b6ffffcb933bd6fad37aa2d162d1a5940015b70ffffffffffffffffffffffffffffffffff16905060006002831614610bee5760806ffff97272373d413259a46990580e213a82610be99190612010565b901c90505b60006004831614610c1c5760806ffff2e50f5f656932ef12357cf3c7fdcc82610c179190612010565b901c90505b60006008831614610c4a5760806fffe5caca7e10e4e61c3624eaa0941cd082610c459190612010565b901c90505b60006010831614610c785760806fffcb9843d60f6159c9db58835c92664482610c739190612010565b901c90505b60006020831614610ca65760806fff973b41fa98c081472e6896dfb254c082610ca19190612010565b901c90505b60006040831614610cd45760806fff2ea16466c96a3843ec78b326b5286182610ccf9190612010565b901c90505b60006080831614610d025760806ffe5dee046a99a2a811c461f1969c305382610cfd9190612010565b901c90505b6000610100831614610d315760806ffcbe86c7900a88aedcffc83b479aa3a482610d2c9190612010565b901c90505b6000610200831614610d605760806ff987a7253ac413176f2b074cf7815e5482610d5b9190612010565b901c90505b6000610400831614610d8f5760806ff3392b0822b70005940c7a398e4b70f382610d8a9190612010565b901c90505b6000610800831614610dbe5760806fe7159475a2c29b7443b29c7fa6e889d982610db99190612010565b901c90505b6000611000831614610ded5760806fd097f3bdfd2022b8845ad8f792aa582582610de89190612010565b901c90505b6000612000831614610e1c5760806fa9f746462d870fdf8a65dc1f90e061e582610e179190612010565b901c90505b6000614000831614610e4b5760806f70d869a156d2a1b890bb3df62baf32f782610e469190612010565b901c90505b6000618000831614610e7a5760806f31be135f97d08fd981231505542fcfa682610e759190612010565b901c90505b600062010000831614610eaa5760806f09aa508b5b7a84e1c677de54f3e99bc982610ea59190612010565b901c90505b600062020000831614610ed95760806e5d6af8dedb81196699c329225ee60482610ed49190612010565b901c90505b600062040000831614610f075760806d2216e584f5fa1ea926041bedfe9882610f029190612010565b901c90505b600062080000831614610f335760806b048a170391f7dc42444e8fa282610f2e9190612010565b901c90505b60008460020b1315610f6e57807fffffffffffffffffffffffffffffffffffffffffffffffffffffffffffffffff610f6b9190611fab565b90505b600064010000000082610f81919061232c565b14610f8d576001610f90565b60005b60ff16602082901c610fa29190611fdc565b92505050919050565b60006401000276a373ffffffffffffffffffffffffffffffffffffffff168273ffffffffffffffffffffffffffffffffffffffff161015801561102d575073fffd8963efd1fc6a506488495d951d5263988d2673ffffffffffffffffffffffffffffffffffffffff168273ffffffffffffffffffffffffffffffffffffffff16105b61106c576040517f08c379a0000000000000000000000000000000000000000000000000000000008152600401611063906123a9565b60405180910390fd5b600060208373ffffffffffffffffffffffffffffffffffffffff16901b9050600081905060006fffffffffffffffffffffffffffffffff821160071b808217915082811c92505067ffffffffffffffff821160061b808217915082811c92505063ffffffff821160051b808217915082811c92505061ffff821160041b808217915082811c92505060ff821160031b808217915082811c925050600f821160021b808217915082811c9250506003821160011b808217915082811c925050600182118082179150506080811061115357607f81611149919061218d565b83901c9150611166565b80607f611160919061218d565b83901b91505b6000604060808361117791906123c9565b901b9050828302607f1c92508260801c80603f1b8217915083811c935050828302607f1c92508260801c80603e1b8217915083811c935050828302607f1c92508260801c80603d1b8217915083811c935050828302607f1c92508260801c80603c1b8217915083811c935050828302607f1c92508260801c80603b1b8217915083811c935050828302607f1c92508260801c80603a1b8217915083811c935050828302607f1c92508260801c8060391b8217915083811c935050828302607f1c92508260801c8060381b8217915083811c935050828302607f1c92508260801c8060371b8217915083811c935050828302607f1c92508260801c8060361b8217915083811c935050828302607f1c92508260801c8060351b8217915083811c935050828302607f1c92508260801c8060341b8217915083811c935050828302607f1c92508260801c8060331b8217915083811c935050828302607f1c92508260801c8060321b82179150506000693627a301d71055774c85826112fa919061240c565b9050600060806f028f6481ab7f045a5af012a19d003aaa8361131c91906123c9565b901d9050600060806fdb2df09e81959a81455e260799a0632f846113409190612484565b901d90508060020b8260020b1461139a578873ffffffffffffffffffffffffffffffffffffffff1661137182610ae0565b73ffffffffffffffffffffffffffffffffffffffff1611156113935781611395565b805b61139c565b815b975050505050505050919050565b6000806113b7848461155e565b9050604081600f0b901d915067800000000000000068010000000000000000826113e191906124d5565b600f0b126113f9576001826113f69190612506565b91505b5092915050565b60008060008473ffffffffffffffffffffffffffffffffffffffff168460405161142a91906125df565b6000604051808303816000865af19150503d8060008114611467576040519150601f19603f3d011682016040523d82523d6000602084013e61146c565b606091505b509150915081801561149a575060008151148061149957508080602001905181019061149891906125f6565b5b5b80156114bd575060008573ffffffffffffffffffffffffffffffffffffffff163b115b9250505092915050565b60006114f2828473ffffffffffffffffffffffffffffffffffffffff166115e790919063ffffffff16565b9050600081511415801561151757508080602001905181019061151591906125f6565b155b1561155957826040517f5274afe70000000000000000000000000000000000000000000000000000000081526004016115509190612623565b60405180910390fd5b505050565b60008082600f0b0361156f57600080fd5b600082600f0b604085600f0b901b8161158b5761158a611f4d565b5b0590507fffffffffffffffffffffffffffffffff80000000000000000000000000000000600f0b81121580156115d457506f7fffffffffffffffffffffffffffffff600f0b8113155b6115dd57600080fd5b8091505092915050565b60606115f5838360006115fd565b905092915050565b60608147101561164457306040517fcd78605900000000000000000000000000000000000000000000000000000000815260040161163b9190612623565b60405180910390fd5b6000808573ffffffffffffffffffffffffffffffffffffffff16848660405161166d91906125df565b60006040518083038185875af1925050503d80600081146116aa576040519150601f19603f3d011682016040523d82523d6000602084013e6116af565b606091505b50915091506116bf8683836116ca565b925050509392505050565b6060826116df576116da82611759565b611751565b60008251148015611707575060008473ffffffffffffffffffffffffffffffffffffffff163b145b1561174957836040517f9996b3150000000000000000000000000000000000000000000000000000000081526004016117409190612623565b60405180910390fd5b819050611752565b5b9392505050565b60008151111561176c5780518082602001fd5b6040517f1425ea4200000000000000000000000000000000000000000000000000000000815260040160405180910390fd5b6000819050919050565b6117b18161179e565b82525050565b60006020820190506117cc60008301846117a8565b92915050565b600080fd5b600073ffffffffffffffffffffffffffffffffffffffff82169050919050565b6000611802826117d7565b9050919050565b611812816117f7565b811461181d57600080fd5b50565b60008135905061182f81611809565b92915050565b61183e8161179e565b811461184957600080fd5b50565b60008135905061185b81611835565b92915050565b6000806000806080858703121561187b5761187a6117d2565b5b600061188987828801611820565b945050602061189a8782880161184c565b93505060406118ab8782880161184c565b92505060606118bc8782880161184c565b91505092959194509250565b6000602082840312156118de576118dd6117d2565b5b60006118ec8482850161184c565b91505092915050565b6000819050919050565b600061191a611915611910846117d7565b6118f5565b6117d7565b9050919050565b600061192c826118ff565b9050919050565b600061193e82611921565b9050919050565b61194e81611933565b82525050565b60006020820190506119696000830184611945565b92915050565b60008160020b9050919050565b6119858161196f565b811461199057600080fd5b50565b6000813590506119a28161197c565b92915050565b6000602082840312156119be576119bd6117d2565b5b60006119cc84828501611993565b91505092915050565b6119de816117d7565b82525050565b60006020820190506119f960008301846119d5565b92915050565b611a08816117d7565b8114611a1357600080fd5b50565b600081359050611a25816119ff565b92915050565b60008060408385031215611a4257611a416117d2565b5b6000611a5085828601611a16565b9250506020611a618582860161184c565b9150509250929050565b611a748161196f565b82525050565b6000602082019050611a8f6000830184611a6b565b92915050565b60008060408385031215611aac57611aab6117d2565b5b6000611aba85828601611993565b9250506020611acb85828601611993565b9150509250929050565b600060208284031215611aeb57611aea6117d2565b5b6000611af984828501611a16565b91505092915050565b600081519050611b1181611809565b92915050565b600060208284031215611b2d57611b2c6117d2565b5b6000611b3b84828501611b02565b91505092915050565b600081519050611b53816119ff565b92915050565b600081519050611b688161197c565b92915050565b600061ffff82169050919050565b611b8581611b6e565b8114611b9057600080fd5b50565b600081519050611ba281611b7c565b92915050565b600060ff82169050919050565b611bbe81611ba8565b8114611bc957600080fd5b50565b600081519050611bdb81611bb5565b92915050565b60008115159050919050565b611bf681611be1565b8114611c0157600080fd5b50565b600081519050611c1381611bed565b92915050565b600080600080600080600060e0888a031215611c3857611c376117d2565b5b6000611c468a828b01611b44565b9750506020611c578a828b01611b59565b9650506040611c688a828b01611b93565b9550506060611c798a828b01611b93565b9450506080611c8a8a828b01611b93565b93505060a0611c9b8a828b01611bcc565b92505060c0611cac8a828b01611c04565b91505092959891949750929550565b600060208284031215611cd157611cd06117d2565b5b6000611cdf84828501611b59565b91505092915050565b600062ffffff82169050919050565b611d0081611ce8565b8114611d0b57600080fd5b50565b600081519050611d1d81611cf7565b92915050565b600060208284031215611d3957611d386117d2565b5b6000611d4784828501611d0e565b91505092915050565b611d59816117f7565b82525050565b611d6881611ce8565b82525050565b611d778161196f565b82525050565b611d868161179e565b82525050565b61016082016000820151611da36000850182611d50565b506020820151611db66020850182611d50565b506040820151611dc96040850182611d5f565b506060820151611ddc6060850182611d6e565b506080820151611def6080850182611d6e565b5060a0820151611e0260a0850182611d7d565b5060c0820151611e1560c0850182611d7d565b5060e0820151611e2860e0850182611d7d565b50610100820151611e3d610100850182611d7d565b50610120820151611e52610120850182611d50565b50610140820151611e67610140850182611d7d565b50505050565b600061016082019050611e836000830184611d8c565b92915050565b600081519050611e9881611835565b92915050565b60006fffffffffffffffffffffffffffffffff82169050919050565b611ec381611e9e565b8114611ece57600080fd5b50565b600081519050611ee081611eba565b92915050565b60008060008060808587031215611f0057611eff6117d2565b5b6000611f0e87828801611e89565b9450506020611f1f87828801611ed1565b9350506040611f3087828801611e89565b9250506060611f4187828801611e89565b91505092959194509250565b7f4e487b7100000000000000000000000000000000000000000000000000000000600052601260045260246000fd5b7f4e487b7100000000000000000000000000000000000000000000000000000000600052601160045260246000fd5b6000611fb68261179e565b9150611fc18361179e565b925082611fd157611fd0611f4d565b5b828204905092915050565b6000611fe78261179e565b9150611ff28361179e565b925082820190508082111561200a57612009611f7c565b5b92915050565b600061201b8261179e565b91506120268361179e565b92508282026120348161179e565b9150828204841483151761204b5761204a611f7c565b5b5092915050565b600061205d8261196f565b91506120688361196f565b92508282026120768161196f565b915080821461208857612087611f7c565b5b5092915050565b600061209a8261196f565b91506120a58361196f565b925082820190507fffffffffffffffffffffffffffffffffffffffffffffffffffffffffff8000008112627fffff821317156120e4576120e3611f7c565b5b92915050565b60006120f58261196f565b91507fffffffffffffffffffffffffffffffffffffffffffffffffffffffffff800000820361212757612126611f7c565b5b816000039050919050565b600061213d8261196f565b91506121488361196f565b92508282039050627fffff81137fffffffffffffffffffffffffffffffffffffffffffffffffffffffffff8000008212171561218757612186611f7c565b5b92915050565b60006121988261179e565b91506121a38361179e565b92508282039050818111156121bb576121ba611f7c565b5b92915050565b6121ca816117f7565b82525050565b60006040820190506121e560008301856121c1565b6121f260208301846117a8565b9392505050565b6000819050919050565b600061221e612219612214846121f9565b6118f5565b61179e565b9050919050565b61222e81612203565b82525050565b600060408201905061224960008301856121c1565b6122566020830184612225565b9392505050565b6000819050919050565b60006122728261225d565b91507f800000000000000000000000000000000000000000000000000000000000000082036122a4576122a3611f7c565b5b816000039050919050565b600082825260208201905092915050565b7f5400000000000000000000000000000000000000000000000000000000000000600082015250565b60006122f66001836122af565b9150612301826122c0565b602082019050919050565b60006020820190508181036000830152612325816122e9565b9050919050565b60006123378261179e565b91506123428361179e565b92508261235257612351611f4d565b5b828206905092915050565b7f5200000000000000000000000000000000000000000000000000000000000000600082015250565b60006123936001836122af565b915061239e8261235d565b602082019050919050565b600060208201905081810360008301526123c281612386565b9050919050565b60006123d48261225d565b91506123df8361225d565b925082820390508181126000841216828213600085121516171561240657612405611f7c565b5b92915050565b60006124178261225d565b91506124228361225d565b92508282026124308161225d565b91507f8000000000000000000000000000000000000000000000000000000000000000841460008412161561246857612467611f7c565b5b828205841483151761247d5761247c611f7c565b5b5092915050565b600061248f8261225d565b915061249a8361225d565b9250828201905082811215600083121683821260008412151617156124c2576124c1611f7c565b5b92915050565b600081600f0b9050919050565b60006124e0826124c8565b91506124eb836124c8565b9250826124fb576124fa611f4d565b5b828207905092915050565b6000612511826124c8565b915061251c836124c8565b925082820190507fffffffffffffffffffffffffffffffff8000000000000000000000000000000081126f7fffffffffffffffffffffffffffffff8213171561256857612567611f7c565b5b92915050565b600081519050919050565b600081905092915050565b60005b838110156125a2578082015181840152602081019050612587565b60008484015250505050565b60006125b98261256e565b6125c38185612579565b93506125d3818560208601612584565b80840191505092915050565b60006125eb82846125ae565b915081905092915050565b60006020828403121561260c5761260b6117d2565b5b600061261a84828501611c04565b91505092915050565b600060208201905061263860008301846121c1565b9291505056fea26469706673582212205a469c1219883bf6ff93977ecee458bd1a85be4f447c887d132962831947b32164736f6c63430008180033",
  "linkReferences": {},
  "deployedLinkReferences": {}
}